{"abi":[{"type":"constructor","inputs":[],"stateMutability":"nonpayable"},{"type":"function","name":"cancelJob","inputs":[{"name":"jobID","type":"bytes32","internalType":"bytes32"}],"outputs":[],"stateMutability":"nonpayable"},{"type":"function","name":"coprocessorOperator","inputs":[],"outputs":[{"name":"","type":"address","internalType":"address"}],"stateMutability":"view"},{"type":"function","name":"createJob","inputs":[{"name":"nonce","type":"uint64","internalType":"uint64"},{"name":"programID","type":"bytes","internalType":"bytes"},{"name":"onchainInput","type":"bytes","internalType":"bytes"},{"name":"maxCycles","type":"uint64","internalType":"uint64"}],"outputs":[{"name":"","type":"bytes32","internalType":"bytes32"}],"stateMutability":"nonpayable"},{"type":"function","name":"getCoprocessorOperator","inputs":[],"outputs":[{"name":"","type":"address","internalType":"address"}],"stateMutability":"view"},{"type":"function","name":"getJobMetadata","inputs":[{"name":"jobID","type":"bytes32","internalType":"bytes32"}],"outputs":[{"name":"","type":"tuple","internalType":"struct IJobManager.JobMetadata","components":[{"name":"programID","type":"bytes","internalType":"bytes"},{"name":"maxCycles","type":"uint64","internalType":"uint64"},{"name":"consumer","type":"address","internalType":"address"},{"name":"status","type":"uint8","internalType":"uint8"}]}],"stateMutability":"view"},{"type":"function","name":"getRelayer","inputs":[],"outputs":[{"name":"","type":"address","internalType":"address"}],"stateMutability":"view"},{"type":"function","name":"initializeJobManager","inputs":[{"name":"initialOwner","type":"address","internalType":"address"},{"name":"_relayer","type":"address","internalType":"address"},{"name":"_coprocessorOperator","type":"address","internalType":"address"}],"outputs":[],"stateMutability":"nonpayable"},{"type":"function","name":"jobIDToBlobhashes","inputs":[{"name":"","type":"bytes32","internalType":"bytes32"},{"name":"","type":"uint256","internalType":"uint256"}],"outputs":[{"name":"","type":"bytes32","internalType":"bytes32"}],"stateMutability":"view"},{"type":"function","name":"jobIDToMetadata","inputs":[{"name":"","type":"bytes32","internalType":"bytes32"}],"outputs":[{"name":"programID","type":"bytes","internalType":"bytes"},{"name":"maxCycles","type":"uint64","internalType":"uint64"},{"name":"consumer","type":"address","internalType":"address"},{"name":"status","type":"uint8","internalType":"uint8"}],"stateMutability":"view"},{"type":"function","name":"owner","inputs":[],"outputs":[{"name":"","type":"address","internalType":"address"}],"stateMutability":"view"},{"type":"function","name":"relayer","inputs":[],"outputs":[{"name":"","type":"address","internalType":"address"}],"stateMutability":"view"},{"type":"function","name":"renounceOwnership","inputs":[],"outputs":[],"stateMutability":"nonpayable"},{"type":"function","name":"setCoprocessorOperator","inputs":[{"name":"_coprocessorOperator","type":"address","internalType":"address"}],"outputs":[],"stateMutability":"nonpayable"},{"type":"function","name":"setRelayer","inputs":[{"name":"_relayer","type":"address","internalType":"address"}],"outputs":[],"stateMutability":"nonpayable"},{"type":"function","name":"submitResult","inputs":[{"name":"resultWithMetadata","type":"bytes","internalType":"bytes"},{"name":"signature","type":"bytes","internalType":"bytes"}],"outputs":[],"stateMutability":"nonpayable"},{"type":"function","name":"submitResultForOffchainJob","inputs":[{"name":"offchainResultWithMetadata","type":"bytes","internalType":"bytes"},{"name":"signatureOnResult","type":"bytes","internalType":"bytes"},{"name":"jobRequest","type":"bytes","internalType":"bytes"},{"name":"signatureOnRequest","type":"bytes","internalType":"bytes"}],"outputs":[],"stateMutability":"nonpayable"},{"type":"function","name":"transferOwnership","inputs":[{"name":"newOwner","type":"address","internalType":"address"}],"outputs":[],"stateMutability":"nonpayable"},{"type":"event","name":"Initialized","inputs":[{"name":"version","type":"uint8","indexed":false,"internalType":"uint8"}],"anonymous":false},{"type":"event","name":"JobCancelled","inputs":[{"name":"jobID","type":"bytes32","indexed":true,"internalType":"bytes32"}],"anonymous":false},{"type":"event","name":"JobCompleted","inputs":[{"name":"jobID","type":"bytes32","indexed":true,"internalType":"bytes32"},{"name":"result","type":"bytes","indexed":false,"internalType":"bytes"}],"anonymous":false},{"type":"event","name":"JobCreated","inputs":[{"name":"jobID","type":"bytes32","indexed":true,"internalType":"bytes32"},{"name":"nonce","type":"uint64","indexed":true,"internalType":"uint64"},{"name":"consumer","type":"address","indexed":true,"internalType":"address"},{"name":"maxCycles","type":"uint64","indexed":false,"internalType":"uint64"},{"name":"programID","type":"bytes","indexed":false,"internalType":"bytes"},{"name":"onchainInput","type":"bytes","indexed":false,"internalType":"bytes"}],"anonymous":false},{"type":"event","name":"OwnershipTransferred","inputs":[{"name":"previousOwner","type":"address","indexed":true,"internalType":"address"},{"name":"newOwner","type":"address","indexed":true,"internalType":"address"}],"anonymous":false}],"bytecode":{"object":"0x6080604052348015600e575f5ffd5b506001606555601a601e565b60d9565b5f54610100900460ff161560885760405162461bcd60e51b815260206004820152602760248201527f496e697469616c697a61626c653a20636f6e747261637420697320696e697469604482015266616c697a696e6760c81b606482015260840160405180910390fd5b5f5460ff908116101560d7575f805460ff191660ff9081179091556040519081527f7f26b83ff96e1f2b6a682f133852f6798a09c465da95921460cefb38474024989060200160405180910390a15b565b612509806100e65f395ff3fe608060405234801561000f575f5ffd5b5060043610610106575f3560e01c80638da5cb5b1161009e578063d332ca871161006e578063d332ca871461022d578063ea2534871461023e578063f1c52b5d14610251578063f2fde38b14610264578063f4c6727914610277575f5ffd5b80638da5cb5b146101e557806392aa4c28146101f6578063a8f63fb614610209578063bdc503731461021c575f5ffd5b806361796952116100d9578063617969521461017e5780636548e9bc1461019f578063715018a6146101b25780638406c079146101ba575f5ffd5b80630b827bfc1461010a57806333db8f79146101335780635ada462e146101485780635fae14501461016b575b5f5ffd5b61011d6101183660046119e8565b61028a565b60405161012a9190611a2d565b60405180910390f35b610146610141366004611aa1565b610394565b005b61015b6101563660046119e8565b6103be565b60405161012a9493929190611ac1565b6101466101793660046119e8565b610486565b61019161018c366004611b04565b61073a565b60405190815260200161012a565b6101466101ad366004611aa1565b610765565b61014661078f565b6066546101cd906001600160a01b031681565b6040516001600160a01b03909116815260200161012a565b6033546001600160a01b03166101cd565b6067546101cd906001600160a01b031681565b610191610217366004611b87565b6107a2565b6066546001600160a01b03166101cd565b6067546001600160a01b03166101cd565b61014661024c366004611d41565b610877565b61014661025f366004611da4565b610a11565b610146610272366004611aa1565b610b50565b610146610285366004611de4565b610bc9565b6040805160808101825260608082525f602083018190529282018390528101919091525f82815260686020526040908190208151608081019092528054829082906102d490611eae565b80601f016020809104026020016040519081016040528092919081815260200182805461030090611eae565b801561034b5780601f106103225761010080835404028352916020019161034b565b820191905f5260205f20905b81548152906001019060200180831161032e57829003601f168201915b5050509183525050600191909101546001600160401b0381166020830152600160401b81046001600160a01b03166040830152600160e01b900460ff1660609091015292915050565b61039c61113e565b606780546001600160a01b0319166001600160a01b0392909216919091179055565b60686020525f90815260409020805481906103d890611eae565b80601f016020809104026020016040519081016040528092919081815260200182805461040490611eae565b801561044f5780601f106104265761010080835404028352916020019161044f565b820191905f5260205f20905b81548152906001019060200180831161043257829003601f168201915b505050600190930154919250506001600160401b038116906001600160a01b03600160401b8204169060ff600160e01b9091041684565b5f818152606860205260408082208151608081019092528054829082906104ac90611eae565b80601f01602080910402602001604051908101604052809291908181526020018280546104d890611eae565b80156105235780601f106104fa57610100808354040283529160200191610523565b820191905f5260205f20905b81548152906001019060200180831161050657829003601f168201915b5050509183525050600191909101546001600160401b0381166020830152600160401b81046001600160a01b03908116604080850191909152600160e01b90920460ff166060909301929092528201519192501633148061058e57506033546001600160a01b031633145b6106165760405162461bcd60e51b815260206004820152604860248201527f4a6f624d616e616765722e63616e63656c4a6f623a2063616c6c65722069732060448201527f6e6f7420746865206a6f6220636f6e73756d6572206f72204a6f624d616e616760648201526732b91037bbb732b960c11b608482015260a4015b60405180910390fd5b606081015160ff166001146106875760405162461bcd60e51b815260206004820152603160248201527f4a6f624d616e616765722e63616e63656c4a6f623a206a6f62206973206e6f7460448201527020696e2070656e64696e6720737461746560781b606482015260840161060d565b600260608201525f828152606860205260409020815182919081906106ac9082611f32565b5060208201516001909101805460408085015160609095015160ff16600160e01b0260ff60e01b196001600160a01b03909616600160401b026001600160e01b03199093166001600160401b039095169490941791909117939093169190911790555182907f9ccc861eaec2aceb9488758b457d6274b344707bc4e961cbaefacd208025410f905f90a25050565b6069602052815f5260405f208181548110610753575f80fd5b905f5260205f20015f91509150505481565b61076d61113e565b606680546001600160a01b0319166001600160a01b0392909216919091179055565b61079761113e565b6107a05f611198565b565b5f5f3390505f88826040516020016107bb929190611fec565b60405160208183030381529060405280519060200120905061081789828a8a8080601f0160208091040260200160405190810160405280939291908181526020018383808284375f920191909152508a92508891506111e99050565b816001600160a01b0316896001600160401b0316827f6746f3d160e2aee55f5b75a72021b8b806113443f64eed235b5f69af10d4890b878c8c8c8c604051610863959493929190612043565b60405180910390a498975050505050505050565b6002606554036108c95760405162461bcd60e51b815260206004820152601f60248201527f5265656e7472616e637947756172643a207265656e7472616e742063616c6c00604482015260640161060d565b60026065556066546001600160a01b031633146109435760405162461bcd60e51b815260206004820152603260248201527f4a6f624d616e616765722e7375626d6974526573756c743a2063616c6c65722060448201527134b9903737ba103a3432903932b630bcb2b960711b606482015260840161060d565b5f61094d8361138a565b6067549091506001600160a01b031661096682846113f3565b6001600160a01b0316146109cf5760405162461bcd60e51b815260206004820152602a60248201527f4a6f624d616e616765722e7375626d6974526573756c743a20496e76616c6964604482015269207369676e617475726560b01b606482015260840161060d565b5f838060200190518101906109e491906120d1565b9050610a06815f01518260400151836020015184606001518560800151611473565b505060016065555050565b5f54610100900460ff1615808015610a2f57505f54600160ff909116105b80610a485750303b158015610a4857505f5460ff166001145b610aab5760405162461bcd60e51b815260206004820152602e60248201527f496e697469616c697a61626c653a20636f6e747261637420697320616c72656160448201526d191e481a5b9a5d1a585b1a5e995960921b606482015260840161060d565b5f805460ff191660011790558015610acc575f805461ff0019166101001790555b610ad584611198565b606680546001600160a01b038086166001600160a01b03199283161790925560678054928516929091169190911790558015610b4a575f805461ff0019169055604051600181527f7f26b83ff96e1f2b6a682f133852f6798a09c465da95921460cefb38474024989060200160405180910390a15b50505050565b610b5861113e565b6001600160a01b038116610bbd5760405162461bcd60e51b815260206004820152602660248201527f4f776e61626c653a206e6577206f776e657220697320746865207a65726f206160448201526564647265737360d01b606482015260840161060d565b610bc681611198565b50565b5f610bd68486018661218c565b90505f815f01518260400151604051602001610bf3929190611fec565b6040516020818303038152906040528051906020012090505f610c4a87878080601f0160208091040260200160405190810160405280939291908181526020018383808284375f9201919091525061138a92505050565b6040808501519051630b135d3f60e11b8082529293506001600160a01b0390911690631626ba7e90610c849085908a908a9060040161225f565b602060405180830381865afa158015610c9f573d5f5f3e3d5ffd5b505050506040513d601f19601f82011682018060405250810190610cc39190612281565b6001600160e01b03191614610d3d5760405162461bcd60e51b815260206004820152604760248201525f5160206124b45f395f51905f5260448201527f696e4a6f623a20496e76616c6964207369676e6174757265206f6e206a6f62206064820152661c995c5d595cdd60ca1b608482015260a40161060d565b5f610d7c8c8c8080601f0160208091040260200160405190810160405280939291908181526020018383808284375f9201919091525061138a92505050565b606754604080516020601f8e018190048102820181019092528c81529293506001600160a01b0390911691610dcd918491908e908e90819084018382808284375f920191909152506113f392505050565b6001600160a01b031614610e415760405162461bcd60e51b815260206004820152604260248201525f5160206124b45f395f51905f5260448201527f696e4a6f623a20496e76616c6964207369676e6174757265206f6e20726573756064820152611b1d60f21b608482015260a40161060d565b5f610e4e8c8e018e612327565b80519091508414610eea5760405162461bcd60e51b815260206004820152606760248201525f5160206124b45f395f51905f5260448201527f696e4a6f623a206a6f62204944207369676e656420627920636f70726f63657360648201527f736f7220646f65736e2774206d61746368206a6f62204944206f66206a6f62206084820152661c995c5d595cdd60ca1b60a482015260c40161060d565b80604001518560a0015114610faa5760405162461bcd60e51b815260206004820152608160248201525f5160206124b45f395f51905f5260448201527f696e4a6f623a206f6666636861696e20696e7075742068617368207369676e6560648201527f6420627920636f70726f636573736f7220646f65736e2774206d61746368206f60848201527f6666636861696e20696e7075742068617368206f66206a6f622072657175657360a4820152601d60fa1b60c482015260e40161060d565b60c0810151511561108d575f5b8160c0015151811015611064575f814990505f8360c001518381518110610fe057610fe0612414565b6020026020010151905080821461105a5760405162461bcd60e51b815260206004820152604560248201525f5160206124b45f395f51905f5260448201527f696e4a6f623a20676976656e20626c6f62206861736820646f6573206e6f74206064820152640dac2e8c6d60db1b608482015260a40161060d565b5050600101610fb7565b5060c08101515f858152606960209081526040909120825161108b9391929091019061198b565b505b6110a9855f0151858760600151886020015189604001516111e9565b84604001516001600160a01b031663f0bb3feb8587608001518860a001516040518463ffffffff1660e01b81526004016110e593929190612428565b5f604051808303815f87803b1580156110fc575f5ffd5b505af115801561110e573d5f5f3e3d5ffd5b5050505061112f848260600151836020015184608001518560a00151611473565b50505050505050505050505050565b6033546001600160a01b031633146107a05760405162461bcd60e51b815260206004820181905260248201527f4f776e61626c653a2063616c6c6572206973206e6f7420746865206f776e6572604482015260640161060d565b603380546001600160a01b038381166001600160a01b0319831681179093556040519116919082907f8be0079c531659141344cd1fd0a4f28419497f9722a3daafe3b4186f6b6457e0905f90a35050565b5f84815260686020526040902060010154600160e01b900460ff16156112855760405162461bcd60e51b815260206004820152604560248201527f4a6f624d616e616765722e6372656174654a6f623a206a6f6220616c7265616460448201527f792065786973747320776974682074686973206e6f6e636520616e6420636f6e60648201526439bab6b2b960d91b608482015260a40161060d565b604080516080810182528481526001600160401b0384166020808301919091526001600160a01b03841682840152600160608301525f878152606890915291909120815181906112d59082611f32565b506020820151600191909101805460408085015160609095015160ff16600160e01b0260ff60e01b196001600160a01b03968716600160401b026001600160e01b03199094166001600160401b039687161793909317929092169190911790915551632dd6202960e21b815290871660048201529082169063b75880a4906024015f604051808303815f87803b15801561136d575f5ffd5b505af115801561137f573d5f5f3e3d5ffd5b505050505050505050565b5f815160207f19457468657265756d205369676e6564204d6573736167653a0a00000000000081525f5f52815b600182039150600a81066030018253600a9004806113b75750603a03602081113d3d3e80515f5117845281810160209190910384012092525090565b604051600190835f526020830151604052604083510361142e57604083015160ff81901c601b016020526001600160ff1b0316606052611452565b604183510361144e5760608301515f1a6020526040830151606052611452565b5f91505b6020604060805f855afa505f6060523d606018519150806040525092915050565b5f8581526068602052604080822081516080810190925280548290829061149990611eae565b80601f01602080910402602001604051908101604052809291908181526020018280546114c590611eae565b80156115105780601f106114e757610100808354040283529160200191611510565b820191905f5260205f20905b8154815290600101906020018083116114f357829003601f168201915b50505091835250506001918201546001600160401b03811660208301526001600160a01b03600160401b820416604083015260ff600160e01b90910481166060928301529083015192935091909116146115c95760405162461bcd60e51b815260206004820152603460248201527f4a6f624d616e616765722e7375626d6974526573756c743a206a6f62206973206044820152736e6f7420696e2070656e64696e6720737461746560601b606482015260840161060d565b60408082015190516329afd8af60e11b81526004810188905285916001600160a01b03169063535fb15e906024015f60405180830381865afa158015611611573d5f5f3e3d5ffd5b505050506040513d5f823e601f3d908101601f191682016040526116389190810190612450565b80519060200120146116ec5760405162461bcd60e51b815260206004820152606b60248201527f4a6f624d616e616765722e7375626d6974526573756c743a206f6e636861696e60448201527f20696e707574207369676e656420627920636f70726f636573736f7220646f6560648201527f736e2774206d61746368206f6e636861696e20696e707574207375626d69747460848201526a32b2103bb4ba34103537b160a91b60a482015260c40161060d565b8280519060200120815f015180519060200120146117a65760405162461bcd60e51b815260206004820152606560248201527f4a6f624d616e616765722e7375626d6974526573756c743a2070726f6772616d60448201527f204944207369676e656420627920636f70726f636573736f7220646f65736e2760648201527f74206d617463682070726f6772616d204944207375626d69747465642077697460848201526434103537b160d91b60a482015260c40161060d565b846001600160401b031681602001516001600160401b0316146118655760405162461bcd60e51b815260206004820152606560248201527f4a6f624d616e616765722e7375626d6974526573756c743a206d61782063796360448201527f6c6573207369676e656420627920636f70726f636573736f7220646f65736e2760648201527f74206d61746368206d6178206379636c6573207375626d69747465642077697460848201526434103537b160d91b60a482015260c40161060d565b600360608201525f8681526068602052604090208151829190819061188a9082611f32565b5060208201516001909101805460408085015160609095015160ff16600160e01b0260ff60e01b196001600160a01b03909616600160401b026001600160e01b03199093166001600160401b039095169490941791909117939093169190911790555186907f18ce2a004e7924f4cafa86a73b66181a8015d42237947bf984673fd623ac644f9061191c908590612489565b60405180910390a280604001516001600160a01b0316635dd8085587846040518363ffffffff1660e01b815260040161195692919061249b565b5f604051808303815f87803b15801561196d575f5ffd5b505af115801561197f573d5f5f3e3d5ffd5b50505050505050505050565b828054828255905f5260205f209081019282156119c4579160200282015b828111156119c45782518255916020019190600101906119a9565b506119d09291506119d4565b5090565b5b808211156119d0575f81556001016119d5565b5f602082840312156119f8575f5ffd5b5035919050565b5f81518084528060208401602086015e5f602082860101526020601f19601f83011685010191505092915050565b602081525f825160806020840152611a4860a08401826119ff565b90506001600160401b03602085015116604084015260018060a01b03604085015116606084015260ff60608501511660808401528091505092915050565b80356001600160a01b0381168114611a9c575f5ffd5b919050565b5f60208284031215611ab1575f5ffd5b611aba82611a86565b9392505050565b608081525f611ad360808301876119ff565b6001600160401b03959095166020830152506001600160a01b0392909216604083015260ff16606090910152919050565b5f5f60408385031215611b15575f5ffd5b50508035926020909101359150565b6001600160401b0381168114610bc6575f5ffd5b8035611a9c81611b24565b5f5f83601f840112611b53575f5ffd5b5081356001600160401b03811115611b69575f5ffd5b602083019150836020828501011115611b80575f5ffd5b9250929050565b5f5f5f5f5f5f60808789031215611b9c575f5ffd5b8635611ba781611b24565b955060208701356001600160401b03811115611bc1575f5ffd5b611bcd89828a01611b43565b90965094505060408701356001600160401b03811115611beb575f5ffd5b611bf789828a01611b43565b9094509250506060870135611c0b81611b24565b809150509295509295509295565b634e487b7160e01b5f52604160045260245ffd5b60405160a081016001600160401b0381118282101715611c4f57611c4f611c19565b60405290565b60405160c081016001600160401b0381118282101715611c4f57611c4f611c19565b60405160e081016001600160401b0381118282101715611c4f57611c4f611c19565b604051601f8201601f191681016001600160401b0381118282101715611cc157611cc1611c19565b604052919050565b5f6001600160401b03821115611ce157611ce1611c19565b50601f01601f191660200190565b5f82601f830112611cfe575f5ffd5b8135611d11611d0c82611cc9565b611c99565b818152846020838601011115611d25575f5ffd5b816020850160208301375f918101602001919091529392505050565b5f5f60408385031215611d52575f5ffd5b82356001600160401b03811115611d67575f5ffd5b611d7385828601611cef565b92505060208301356001600160401b03811115611d8e575f5ffd5b611d9a85828601611cef565b9150509250929050565b5f5f5f60608486031215611db6575f5ffd5b611dbf84611a86565b9250611dcd60208501611a86565b9150611ddb60408501611a86565b90509250925092565b5f5f5f5f5f5f5f5f6080898b031215611dfb575f5ffd5b88356001600160401b03811115611e10575f5ffd5b611e1c8b828c01611b43565b90995097505060208901356001600160401b03811115611e3a575f5ffd5b611e468b828c01611b43565b90975095505060408901356001600160401b03811115611e64575f5ffd5b611e708b828c01611b43565b90955093505060608901356001600160401b03811115611e8e575f5ffd5b611e9a8b828c01611b43565b999c989b5096995094979396929594505050565b600181811c90821680611ec257607f821691505b602082108103611ee057634e487b7160e01b5f52602260045260245ffd5b50919050565b601f821115611f2d57805f5260205f20601f840160051c81016020851015611f0b5750805b601f840160051c820191505b81811015611f2a575f8155600101611f17565b50505b505050565b81516001600160401b03811115611f4b57611f4b611c19565b611f5f81611f598454611eae565b84611ee6565b6020601f821160018114611f91575f8315611f7a5750848201515b5f19600385901b1c1916600184901b178455611f2a565b5f84815260208120601f198516915b82811015611fc05787850151825560209485019460019092019101611fa0565b5084821015611fdd57868401515f19600387901b60f8161c191681555b50505050600190811b01905550565b60c09290921b6001600160c01b031916825260601b6bffffffffffffffffffffffff19166008820152601c0190565b81835281816020850137505f828201602090810191909152601f909101601f19169091010190565b6001600160401b0386168152606060208201525f61206560608301868861201b565b828103604084015261207881858761201b565b98975050505050505050565b5f82601f830112612093575f5ffd5b81516120a1611d0c82611cc9565b8181528460208386010111156120b5575f5ffd5b8160208501602083015e5f918101602001919091529392505050565b5f602082840312156120e1575f5ffd5b81516001600160401b038111156120f6575f5ffd5b820160a08185031215612107575f5ffd5b61210f611c2d565b8151815260208083015190820152604082015161212b81611b24565b604082015260608201516001600160401b03811115612148575f5ffd5b61215486828501612084565b60608301525060808201516001600160401b03811115612172575f5ffd5b61217e86828501612084565b608083015250949350505050565b5f6020828403121561219c575f5ffd5b81356001600160401b038111156121b1575f5ffd5b820160c081850312156121c2575f5ffd5b6121ca611c55565b6121d382611b38565b81526121e160208301611b38565b60208201526121f260408301611a86565b604082015260608201356001600160401b0381111561220f575f5ffd5b61221b86828501611cef565b60608301525060808201356001600160401b03811115612239575f5ffd5b61224586828501611cef565b60808301525060a091820135918101919091529392505050565b838152604060208201525f61227860408301848661201b565b95945050505050565b5f60208284031215612291575f5ffd5b81516001600160e01b031981168114611aba575f5ffd5b5f82601f8301126122b7575f5ffd5b81356001600160401b038111156122d0576122d0611c19565b8060051b6122e060208201611c99565b918252602081850181019290810190868411156122fb575f5ffd5b6020860192505b8383101561231d578235825260209283019290910190612302565b9695505050505050565b5f60208284031215612337575f5ffd5b81356001600160401b0381111561234c575f5ffd5b820160e0818503121561235d575f5ffd5b612365611c77565b81358152602080830135908201526040808301359082015261238960608301611b38565b606082015260808201356001600160401b038111156123a6575f5ffd5b6123b286828501611cef565b60808301525060a08201356001600160401b038111156123d0575f5ffd5b6123dc86828501611cef565b60a08301525060c08201356001600160401b038111156123fa575f5ffd5b612406868285016122a8565b60c083015250949350505050565b634e487b7160e01b5f52603260045260245ffd5b838152606060208201525f61244060608301856119ff565b9050826040830152949350505050565b5f60208284031215612460575f5ffd5b81516001600160401b03811115612475575f5ffd5b61248184828501612084565b949350505050565b602081525f611aba60208301846119ff565b828152604060208201525f61248160408301846119ff56fe4a6f624d616e616765722e7375626d6974526573756c74466f724f6666636861a264697066735822122098132b6067f366d0047cde70edd0d9d89fc078044d18b453084110523e8afd5e64736f6c634300081c0033","linkReferences":{}},"methodIdentifiers":{"cancelJob(bytes32)":"5fae1450","coprocessorOperator()":"92aa4c28","createJob(uint64,bytes,bytes,uint64)":"a8f63fb6","getCoprocessorOperator()":"d332ca87","getJobMetadata(bytes32)":"0b827bfc","getRelayer()":"bdc50373","initializeJobManager(address,address,address)":"f1c52b5d","jobIDToBlobhashes(bytes32,uint256)":"61796952","jobIDToMetadata(bytes32)":"5ada462e","owner()":"8da5cb5b","relayer()":"8406c079","renounceOwnership()":"715018a6","setCoprocessorOperator(address)":"33db8f79","setRelayer(address)":"6548e9bc","submitResult(bytes,bytes)":"ea253487","submitResultForOffchainJob(bytes,bytes,bytes,bytes)":"f4c67279","transferOwnership(address)":"f2fde38b"},"id":66}