{"abi":[{"type":"constructor","inputs":[],"stateMutability":"nonpayable"},{"type":"function","name":"cancelJob","inputs":[{"name":"jobID","type":"bytes32","internalType":"bytes32"}],"outputs":[],"stateMutability":"nonpayable"},{"type":"function","name":"coprocessorOperator","inputs":[],"outputs":[{"name":"","type":"address","internalType":"address"}],"stateMutability":"view"},{"type":"function","name":"createJob","inputs":[{"name":"nonce","type":"uint64","internalType":"uint64"},{"name":"programID","type":"bytes","internalType":"bytes"},{"name":"onchainInput","type":"bytes","internalType":"bytes"},{"name":"maxCycles","type":"uint64","internalType":"uint64"}],"outputs":[{"name":"","type":"bytes32","internalType":"bytes32"}],"stateMutability":"nonpayable"},{"type":"function","name":"getCoprocessorOperator","inputs":[],"outputs":[{"name":"","type":"address","internalType":"address"}],"stateMutability":"view"},{"type":"function","name":"getJobMetadata","inputs":[{"name":"jobID","type":"bytes32","internalType":"bytes32"}],"outputs":[{"name":"","type":"tuple","internalType":"struct IJobManager.JobMetadata","components":[{"name":"programID","type":"bytes","internalType":"bytes"},{"name":"maxCycles","type":"uint64","internalType":"uint64"},{"name":"consumer","type":"address","internalType":"address"},{"name":"status","type":"uint8","internalType":"uint8"}]}],"stateMutability":"view"},{"type":"function","name":"getRelayer","inputs":[],"outputs":[{"name":"","type":"address","internalType":"address"}],"stateMutability":"view"},{"type":"function","name":"initializeJobManager","inputs":[{"name":"initialOwner","type":"address","internalType":"address"},{"name":"_relayer","type":"address","internalType":"address"},{"name":"_coprocessorOperator","type":"address","internalType":"address"}],"outputs":[],"stateMutability":"nonpayable"},{"type":"function","name":"jobIDToBlobhashes","inputs":[{"name":"","type":"bytes32","internalType":"bytes32"},{"name":"","type":"uint256","internalType":"uint256"}],"outputs":[{"name":"","type":"bytes32","internalType":"bytes32"}],"stateMutability":"view"},{"type":"function","name":"jobIDToMetadata","inputs":[{"name":"","type":"bytes32","internalType":"bytes32"}],"outputs":[{"name":"programID","type":"bytes","internalType":"bytes"},{"name":"maxCycles","type":"uint64","internalType":"uint64"},{"name":"consumer","type":"address","internalType":"address"},{"name":"status","type":"uint8","internalType":"uint8"}],"stateMutability":"view"},{"type":"function","name":"owner","inputs":[],"outputs":[{"name":"","type":"address","internalType":"address"}],"stateMutability":"view"},{"type":"function","name":"relayer","inputs":[],"outputs":[{"name":"","type":"address","internalType":"address"}],"stateMutability":"view"},{"type":"function","name":"renounceOwnership","inputs":[],"outputs":[],"stateMutability":"nonpayable"},{"type":"function","name":"setCoprocessorOperator","inputs":[{"name":"_coprocessorOperator","type":"address","internalType":"address"}],"outputs":[],"stateMutability":"nonpayable"},{"type":"function","name":"setRelayer","inputs":[{"name":"_relayer","type":"address","internalType":"address"}],"outputs":[],"stateMutability":"nonpayable"},{"type":"function","name":"submitResult","inputs":[{"name":"resultWithMetadata","type":"bytes","internalType":"bytes"},{"name":"signature","type":"bytes","internalType":"bytes"}],"outputs":[],"stateMutability":"nonpayable"},{"type":"function","name":"submitResultForOffchainJob","inputs":[{"name":"offchainResultWithMetadata","type":"bytes","internalType":"bytes"},{"name":"signatureOnResult","type":"bytes","internalType":"bytes"},{"name":"jobRequest","type":"bytes","internalType":"bytes"},{"name":"signatureOnRequest","type":"bytes","internalType":"bytes"}],"outputs":[],"stateMutability":"nonpayable"},{"type":"function","name":"transferOwnership","inputs":[{"name":"newOwner","type":"address","internalType":"address"}],"outputs":[],"stateMutability":"nonpayable"},{"type":"event","name":"Initialized","inputs":[{"name":"version","type":"uint8","indexed":false,"internalType":"uint8"}],"anonymous":false},{"type":"event","name":"JobCancelled","inputs":[{"name":"jobID","type":"bytes32","indexed":true,"internalType":"bytes32"}],"anonymous":false},{"type":"event","name":"JobCompleted","inputs":[{"name":"jobID","type":"bytes32","indexed":true,"internalType":"bytes32"},{"name":"result","type":"bytes","indexed":false,"internalType":"bytes"}],"anonymous":false},{"type":"event","name":"JobCreated","inputs":[{"name":"jobID","type":"bytes32","indexed":true,"internalType":"bytes32"},{"name":"nonce","type":"uint64","indexed":true,"internalType":"uint64"},{"name":"consumer","type":"address","indexed":true,"internalType":"address"},{"name":"maxCycles","type":"uint64","indexed":false,"internalType":"uint64"},{"name":"programID","type":"bytes","indexed":false,"internalType":"bytes"},{"name":"onchainInput","type":"bytes","indexed":false,"internalType":"bytes"}],"anonymous":false},{"type":"event","name":"OwnershipTransferred","inputs":[{"name":"previousOwner","type":"address","indexed":true,"internalType":"address"},{"name":"newOwner","type":"address","indexed":true,"internalType":"address"}],"anonymous":false}],"bytecode":{"object":"0x608060405234801561000f575f5ffd5b5061001e61002360201b60201c565b6101b4565b5f60019054906101000a900460ff1615610072576040517f08c379a000000000000000000000000000000000000000000000000000000000815260040161006990610162565b60405180910390fd5b60ff80165f5f9054906101000a900460ff1660ff1610156100e05760ff5f5f6101000a81548160ff021916908360ff1602179055507f7f26b83ff96e1f2b6a682f133852f6798a09c465da95921460cefb384740249860ff6040516100d7919061019b565b60405180910390a15b565b5f82825260208201905092915050565b7f496e697469616c697a61626c653a20636f6e747261637420697320696e6974695f8201527f616c697a696e6700000000000000000000000000000000000000000000000000602082015250565b5f61014c6027836100e2565b9150610157826100f2565b604082019050919050565b5f6020820190508181035f83015261017981610140565b9050919050565b5f60ff82169050919050565b61019581610180565b82525050565b5f6020820190506101ae5f83018461018c565b92915050565b613c87806101c15f395ff3fe608060405234801561000f575f5ffd5b5060043610610109575f3560e01c80638da5cb5b116100a0578063d332ca871161006f578063d332ca87146102a6578063ea253487146102c4578063f1c52b5d146102e0578063f2fde38b146102fc578063f4c672791461031857610109565b80638da5cb5b1461021c57806392aa4c281461023a578063a8f63fb614610258578063bdc503731461028857610109565b806361796952116100dc57806361796952146101a85780636548e9bc146101d8578063715018a6146101f45780638406c079146101fe57610109565b80630b827bfc1461010d57806333db8f791461013d5780635ada462e146101595780635fae14501461018c575b5f5ffd5b61012760048036038101906101229190611e0a565b610334565b6040516101349190611f81565b60405180910390f35b61015760048036038101906101529190611fcb565b610492565b005b610173600480360381019061016e9190611e0a565b6104dd565b604051610183949392919061206b565b60405180910390f35b6101a660048036038101906101a19190611e0a565b6105cf565b005b6101c260048036038101906101bd91906120e8565b610920565b6040516101cf9190612135565b60405180910390f35b6101f260048036038101906101ed9190611fcb565b61094b565b005b6101fc610996565b005b6102066109a9565b604051610213919061214e565b60405180910390f35b6102246109ce565b604051610231919061214e565b60405180910390f35b6102426109f6565b60405161024f919061214e565b60405180910390f35b610272600480360381019061026d91906121f2565b610a1b565b60405161027f9190612135565b60405180910390f35b610290610b0d565b60405161029d919061214e565b60405180910390f35b6102ae610b35565b6040516102bb919061214e565b60405180910390f35b6102de60048036038101906102d991906123bd565b610b5d565b005b6102fa60048036038101906102f59190612433565b610d22565b005b61031660048036038101906103119190611fcb565b610ee0565b005b610332600480360381019061032d9190612483565b610f62565b005b61033c611d18565b60995f8381526020019081526020015f206040518060800160405290815f8201805461036790612594565b80601f016020809104026020016040519081016040528092919081815260200182805461039390612594565b80156103de5780601f106103b5576101008083540402835291602001916103de565b820191905f5260205f20905b8154815290600101906020018083116103c157829003601f168201915b50505050508152602001600182015f9054906101000a900467ffffffffffffffff1667ffffffffffffffff1667ffffffffffffffff1681526020016001820160089054906101000a900473ffffffffffffffffffffffffffffffffffffffff1673ffffffffffffffffffffffffffffffffffffffff1673ffffffffffffffffffffffffffffffffffffffff16815260200160018201601c9054906101000a900460ff1660ff1660ff16815250509050919050565b61049a611447565b8060985f6101000a81548173ffffffffffffffffffffffffffffffffffffffff021916908373ffffffffffffffffffffffffffffffffffffffff16021790555050565b6099602052805f5260405f205f91509050805f0180546104fc90612594565b80601f016020809104026020016040519081016040528092919081815260200182805461052890612594565b80156105735780601f1061054a57610100808354040283529160200191610573565b820191905f5260205f20905b81548152906001019060200180831161055657829003601f168201915b505050505090806001015f9054906101000a900467ffffffffffffffff16908060010160089054906101000a900473ffffffffffffffffffffffffffffffffffffffff169080600101601c9054906101000a900460ff16905084565b5f60995f8381526020019081526020015f206040518060800160405290815f820180546105fb90612594565b80601f016020809104026020016040519081016040528092919081815260200182805461062790612594565b80156106725780601f1061064957610100808354040283529160200191610672565b820191905f5260205f20905b81548152906001019060200180831161065557829003601f168201915b50505050508152602001600182015f9054906101000a900467ffffffffffffffff1667ffffffffffffffff1667ffffffffffffffff1681526020016001820160089054906101000a900473ffffffffffffffffffffffffffffffffffffffff1673ffffffffffffffffffffffffffffffffffffffff1673ffffffffffffffffffffffffffffffffffffffff16815260200160018201601c9054906101000a900460ff1660ff1660ff16815250509050806040015173ffffffffffffffffffffffffffffffffffffffff163373ffffffffffffffffffffffffffffffffffffffff16148061079157506107626109ce565b73ffffffffffffffffffffffffffffffffffffffff163373ffffffffffffffffffffffffffffffffffffffff16145b6107d0576040517f08c379a00000000000000000000000000000000000000000000000000000000081526004016107c79061266a565b60405180910390fd5b600160ff16816060015160ff161461081d576040517f08c379a0000000000000000000000000000000000000000000000000000000008152600401610814906126f8565b60405180910390fd5b6002816060019060ff16908160ff16815250508060995f8481526020019081526020015f205f820151815f01908161085591906128b6565b506020820151816001015f6101000a81548167ffffffffffffffff021916908367ffffffffffffffff16021790555060408201518160010160086101000a81548173ffffffffffffffffffffffffffffffffffffffff021916908373ffffffffffffffffffffffffffffffffffffffff160217905550606082015181600101601c6101000a81548160ff021916908360ff160217905550905050817f9ccc861eaec2aceb9488758b457d6274b344707bc4e961cbaefacd208025410f60405160405180910390a25050565b609a602052815f5260405f208181548110610939575f80fd5b905f5260205f20015f91509150505481565b610953611447565b8060975f6101000a81548173ffffffffffffffffffffffffffffffffffffffff021916908373ffffffffffffffffffffffffffffffffffffffff16021790555050565b61099e611447565b6109a75f6114c5565b565b60975f9054906101000a900473ffffffffffffffffffffffffffffffffffffffff1681565b5f60335f9054906101000a900473ffffffffffffffffffffffffffffffffffffffff16905090565b60985f9054906101000a900473ffffffffffffffffffffffffffffffffffffffff1681565b5f5f3390505f8882604051602001610a349291906129fe565b604051602081830303815290604052805190602001209050610a9c89828a8a8080601f0160208091040260200160405190810160405280939291908181526020018383808284375f81840152601f19601f820116905080830192505050505050508786611588565b8173ffffffffffffffffffffffffffffffffffffffff168967ffffffffffffffff16827f6746f3d160e2aee55f5b75a72021b8b806113443f64eed235b5f69af10d4890b878c8c8c8c604051610af6959493929190612a55565b60405180910390a480925050509695505050505050565b5f60975f9054906101000a900473ffffffffffffffffffffffffffffffffffffffff16905090565b5f60985f9054906101000a900473ffffffffffffffffffffffffffffffffffffffff16905090565b600260655403610ba2576040517f08c379a0000000000000000000000000000000000000000000000000000000008152600401610b9990612ae6565b60405180910390fd5b600260658190555060975f9054906101000a900473ffffffffffffffffffffffffffffffffffffffff1673ffffffffffffffffffffffffffffffffffffffff163373ffffffffffffffffffffffffffffffffffffffff1614610c39576040517f08c379a0000000000000000000000000000000000000000000000000000000008152600401610c3090612b74565b60405180910390fd5b5f610c438361175e565b905060985f9054906101000a900473ffffffffffffffffffffffffffffffffffffffff1673ffffffffffffffffffffffffffffffffffffffff16610c8782846117d7565b73ffffffffffffffffffffffffffffffffffffffff1614610cdd576040517f08c379a0000000000000000000000000000000000000000000000000000000008152600401610cd490612c02565b60405180910390fd5b5f83806020019051810190610cf29190612d7f565b9050610d14815f0151826040015183602001518460600151856080015161185e565b505060016065819055505050565b5f5f60019054906101000a900460ff16159050808015610d52575060015f5f9054906101000a900460ff1660ff16105b80610d7f5750610d6130611cef565b158015610d7e575060015f5f9054906101000a900460ff1660ff16145b5b610dbe576040517f08c379a0000000000000000000000000000000000000000000000000000000008152600401610db590612e36565b60405180910390fd5b60015f5f6101000a81548160ff021916908360ff1602179055508015610df95760015f60016101000a81548160ff0219169083151502179055505b610e02846114c5565b8260975f6101000a81548173ffffffffffffffffffffffffffffffffffffffff021916908373ffffffffffffffffffffffffffffffffffffffff1602179055508160985f6101000a81548173ffffffffffffffffffffffffffffffffffffffff021916908373ffffffffffffffffffffffffffffffffffffffff1602179055508015610eda575f5f60016101000a81548160ff0219169083151502179055507f7f26b83ff96e1f2b6a682f133852f6798a09c465da95921460cefb38474024986001604051610ed19190612e8d565b60405180910390a15b50505050565b610ee8611447565b5f73ffffffffffffffffffffffffffffffffffffffff168173ffffffffffffffffffffffffffffffffffffffff1603610f56576040517f08c379a0000000000000000000000000000000000000000000000000000000008152600401610f4d90612f16565b60405180910390fd5b610f5f816114c5565b50565b5f8484810190610f729190613009565b90505f815f01518260400151604051602001610f8f9291906129fe565b6040516020818303038152906040528051906020012090505f610ff487878080601f0160208091040260200160405190810160405280939291908181526020018383808284375f81840152601f19601f8201169050808301925050505050505061175e565b9050631626ba7e60e01b7bffffffffffffffffffffffffffffffffffffffffffffffffffffffff1916836040015173ffffffffffffffffffffffffffffffffffffffff16631626ba7e8388886040518463ffffffff1660e01b815260040161105e93929190613050565b602060405180830381865afa158015611079573d5f5f3e3d5ffd5b505050506040513d601f19601f8201168201806040525081019061109d91906130d5565b7bffffffffffffffffffffffffffffffffffffffffffffffffffffffff1916146110fc576040517f08c379a00000000000000000000000000000000000000000000000000000000081526004016110f390613196565b60405180910390fd5b5f6111498c8c8080601f0160208091040260200160405190810160405280939291908181526020018383808284375f81840152601f19601f8201169050808301925050505050505061175e565b905060985f9054906101000a900473ffffffffffffffffffffffffffffffffffffffff1673ffffffffffffffffffffffffffffffffffffffff166111d0828c8c8080601f0160208091040260200160405190810160405280939291908181526020018383808284375f81840152601f19601f820116905080830192505050505050506117d7565b73ffffffffffffffffffffffffffffffffffffffff1614611226576040517f08c379a000000000000000000000000000000000000000000000000000000000815260040161121d9061324a565b60405180910390fd5b5f8c8c810190611236919061342d565b9050805f0151841461127d576040517f08c379a000000000000000000000000000000000000000000000000000000000815260040161127490613530565b60405180910390fd5b80604001518560a00151146112c7576040517f08c379a00000000000000000000000000000000000000000000000000000000081526004016112be90613630565b60405180910390fd5b5f8160c001515114611389575f5f90505b8160c001515181101561135d575f814990505f8360c0015183815181106113025761130161364e565b5b6020026020010151905080821461134e576040517f08c379a000000000000000000000000000000000000000000000000000000000815260040161134590613711565b60405180910390fd5b505080806001019150506112d8565b508060c00151609a5f8681526020019081526020015f209080519060200190611387929190611d60565b505b6113a5855f015185876060015188602001518960400151611588565b846040015173ffffffffffffffffffffffffffffffffffffffff1663f0bb3feb8587608001518860a001516040518463ffffffff1660e01b81526004016113ee9392919061372f565b5f604051808303815f87803b158015611405575f5ffd5b505af1158015611417573d5f5f3e3d5ffd5b50505050611438848260600151836020015184608001518560a0015161185e565b50505050505050505050505050565b61144f611d11565b73ffffffffffffffffffffffffffffffffffffffff1661146d6109ce565b73ffffffffffffffffffffffffffffffffffffffff16146114c3576040517f08c379a00000000000000000000000000000000000000000000000000000000081526004016114ba906137b5565b60405180910390fd5b565b5f60335f9054906101000a900473ffffffffffffffffffffffffffffffffffffffff1690508160335f6101000a81548173ffffffffffffffffffffffffffffffffffffffff021916908373ffffffffffffffffffffffffffffffffffffffff1602179055508173ffffffffffffffffffffffffffffffffffffffff168173ffffffffffffffffffffffffffffffffffffffff167f8be0079c531659141344cd1fd0a4f28419497f9722a3daafe3b4186f6b6457e060405160405180910390a35050565b5f60995f8681526020019081526020015f20600101601c9054906101000a900460ff1660ff16146115ee576040517f08c379a00000000000000000000000000000000000000000000000000000000081526004016115e590613869565b60405180910390fd5b60405180608001604052808481526020018367ffffffffffffffff1681526020018273ffffffffffffffffffffffffffffffffffffffff168152602001600160ff1681525060995f8681526020019081526020015f205f820151815f01908161165791906128b6565b506020820151816001015f6101000a81548167ffffffffffffffff021916908367ffffffffffffffff16021790555060408201518160010160086101000a81548173ffffffffffffffffffffffffffffffffffffffff021916908373ffffffffffffffffffffffffffffffffffffffff160217905550606082015181600101601c6101000a81548160ff021916908360ff1602179055509050508073ffffffffffffffffffffffffffffffffffffffff1663b75880a4866040518263ffffffff1660e01b815260040161172a9190613887565b5f604051808303815f87803b158015611741575f5ffd5b505af1158015611753573d5f5f3e3d5ffd5b505050505050505050565b5f815160207f19457468657265756d205369676e6564204d6573736167653a0a00000000000081525f5f52815b6001156117ad57600182039150600a81066030018253600a810490508061178b575b5080603a03602081113d3d3e80515f51178552828101816020038601209350828552505050919050565b5f6001905060405160011561183d57835f5260208301516040526040835103611819576040830151601b8160ff1c016020528060011b60011c6060525061183d565b60418351036118395760608301515f1a602052604083015160605261183d565b5f91505b6020604060805f855afa505f6060523d606018519150806040525092915050565b5f60995f8781526020019081526020015f206040518060800160405290815f8201805461188a90612594565b80601f01602080910402602001604051908101604052809291908181526020018280546118b690612594565b80156119015780601f106118d857610100808354040283529160200191611901565b820191905f5260205f20905b8154815290600101906020018083116118e457829003601f168201915b50505050508152602001600182015f9054906101000a900467ffffffffffffffff1667ffffffffffffffff1667ffffffffffffffff1681526020016001820160089054906101000a900473ffffffffffffffffffffffffffffffffffffffff1673ffffffffffffffffffffffffffffffffffffffff1673ffffffffffffffffffffffffffffffffffffffff16815260200160018201601c9054906101000a900460ff1660ff1660ff16815250509050600160ff16816060015160ff16146119fd576040517f08c379a00000000000000000000000000000000000000000000000000000000081526004016119f490613910565b60405180910390fd5b83816040015173ffffffffffffffffffffffffffffffffffffffff1663535fb15e886040518263ffffffff1660e01b8152600401611a3b9190612135565b5f60405180830381865afa158015611a55573d5f5f3e3d5ffd5b505050506040513d5f823e3d601f19601f82011682018060405250810190611a7d919061392e565b8051906020012014611ac4576040517f08c379a0000000000000000000000000000000000000000000000000000000008152600401611abb90613a31565b60405180910390fd5b8280519060200120815f01518051906020012014611b17576040517f08c379a0000000000000000000000000000000000000000000000000000000008152600401611b0e90613b0b565b60405180910390fd5b8467ffffffffffffffff16816020015167ffffffffffffffff1614611b71576040517f08c379a0000000000000000000000000000000000000000000000000000000008152600401611b6890613be5565b60405180910390fd5b6003816060019060ff16908160ff16815250508060995f8881526020019081526020015f205f820151815f019081611ba991906128b6565b506020820151816001015f6101000a81548167ffffffffffffffff021916908367ffffffffffffffff16021790555060408201518160010160086101000a81548173ffffffffffffffffffffffffffffffffffffffff021916908373ffffffffffffffffffffffffffffffffffffffff160217905550606082015181600101601c6101000a81548160ff021916908360ff160217905550905050857f18ce2a004e7924f4cafa86a73b66181a8015d42237947bf984673fd623ac644f83604051611c739190613c03565b60405180910390a2806040015173ffffffffffffffffffffffffffffffffffffffff16635dd8085587846040518363ffffffff1660e01b8152600401611cba929190613c23565b5f604051808303815f87803b158015611cd1575f5ffd5b505af1158015611ce3573d5f5f3e3d5ffd5b50505050505050505050565b5f5f8273ffffffffffffffffffffffffffffffffffffffff163b119050919050565b5f33905090565b6040518060800160405280606081526020015f67ffffffffffffffff1681526020015f73ffffffffffffffffffffffffffffffffffffffff1681526020015f60ff1681525090565b828054828255905f5260205f20908101928215611d9a579160200282015b82811115611d99578251825591602001919060010190611d7e565b5b509050611da79190611dab565b5090565b5b80821115611dc2575f815f905550600101611dac565b5090565b5f604051905090565b5f5ffd5b5f5ffd5b5f819050919050565b611de981611dd7565b8114611df3575f5ffd5b50565b5f81359050611e0481611de0565b92915050565b5f60208284031215611e1f57611e1e611dcf565b5b5f611e2c84828501611df6565b91505092915050565b5f81519050919050565b5f82825260208201905092915050565b8281835e5f83830152505050565b5f601f19601f8301169050919050565b5f611e7782611e35565b611e818185611e3f565b9350611e91818560208601611e4f565b611e9a81611e5d565b840191505092915050565b5f67ffffffffffffffff82169050919050565b611ec181611ea5565b82525050565b5f73ffffffffffffffffffffffffffffffffffffffff82169050919050565b5f611ef082611ec7565b9050919050565b611f0081611ee6565b82525050565b5f60ff82169050919050565b611f1b81611f06565b82525050565b5f608083015f8301518482035f860152611f3b8282611e6d565b9150506020830151611f506020860182611eb8565b506040830151611f636040860182611ef7565b506060830151611f766060860182611f12565b508091505092915050565b5f6020820190508181035f830152611f998184611f21565b905092915050565b611faa81611ee6565b8114611fb4575f5ffd5b50565b5f81359050611fc581611fa1565b92915050565b5f60208284031215611fe057611fdf611dcf565b5b5f611fed84828501611fb7565b91505092915050565b5f82825260208201905092915050565b5f61201082611e35565b61201a8185611ff6565b935061202a818560208601611e4f565b61203381611e5d565b840191505092915050565b61204781611ea5565b82525050565b61205681611ee6565b82525050565b61206581611f06565b82525050565b5f6080820190508181035f8301526120838187612006565b9050612092602083018661203e565b61209f604083018561204d565b6120ac606083018461205c565b95945050505050565b5f819050919050565b6120c7816120b5565b81146120d1575f5ffd5b50565b5f813590506120e2816120be565b92915050565b5f5f604083850312156120fe576120fd611dcf565b5b5f61210b85828601611df6565b925050602061211c858286016120d4565b9150509250929050565b61212f81611dd7565b82525050565b5f6020820190506121485f830184612126565b92915050565b5f6020820190506121615f83018461204d565b92915050565b61217081611ea5565b811461217a575f5ffd5b50565b5f8135905061218b81612167565b92915050565b5f5ffd5b5f5ffd5b5f5ffd5b5f5f83601f8401126121b2576121b1612191565b5b8235905067ffffffffffffffff8111156121cf576121ce612195565b5b6020830191508360018202830111156121eb576121ea612199565b5b9250929050565b5f5f5f5f5f5f6080878903121561220c5761220b611dcf565b5b5f61221989828a0161217d565b965050602087013567ffffffffffffffff81111561223a57612239611dd3565b5b61224689828a0161219d565b9550955050604087013567ffffffffffffffff81111561226957612268611dd3565b5b61227589828a0161219d565b9350935050606061228889828a0161217d565b9150509295509295509295565b5f5ffd5b7f4e487b71000000000000000000000000000000000000000000000000000000005f52604160045260245ffd5b6122cf82611e5d565b810181811067ffffffffffffffff821117156122ee576122ed612299565b5b80604052505050565b5f612300611dc6565b905061230c82826122c6565b919050565b5f67ffffffffffffffff82111561232b5761232a612299565b5b61233482611e5d565b9050602081019050919050565b828183375f83830152505050565b5f61236161235c84612311565b6122f7565b90508281526020810184848401111561237d5761237c612295565b5b612388848285612341565b509392505050565b5f82601f8301126123a4576123a3612191565b5b81356123b484826020860161234f565b91505092915050565b5f5f604083850312156123d3576123d2611dcf565b5b5f83013567ffffffffffffffff8111156123f0576123ef611dd3565b5b6123fc85828601612390565b925050602083013567ffffffffffffffff81111561241d5761241c611dd3565b5b61242985828601612390565b9150509250929050565b5f5f5f6060848603121561244a57612449611dcf565b5b5f61245786828701611fb7565b935050602061246886828701611fb7565b925050604061247986828701611fb7565b9150509250925092565b5f5f5f5f5f5f5f5f6080898b03121561249f5761249e611dcf565b5b5f89013567ffffffffffffffff8111156124bc576124bb611dd3565b5b6124c88b828c0161219d565b9850985050602089013567ffffffffffffffff8111156124eb576124ea611dd3565b5b6124f78b828c0161219d565b9650965050604089013567ffffffffffffffff81111561251a57612519611dd3565b5b6125268b828c0161219d565b9450945050606089013567ffffffffffffffff81111561254957612548611dd3565b5b6125558b828c0161219d565b92509250509295985092959890939650565b7f4e487b71000000000000000000000000000000000000000000000000000000005f52602260045260245ffd5b5f60028204905060018216806125ab57607f821691505b6020821081036125be576125bd612567565b5b50919050565b5f82825260208201905092915050565b7f4a6f624d616e616765722e63616e63656c4a6f623a2063616c6c6572206973205f8201527f6e6f7420746865206a6f6220636f6e73756d6572206f72204a6f624d616e616760208201527f6572206f776e6572000000000000000000000000000000000000000000000000604082015250565b5f6126546048836125c4565b915061265f826125d4565b606082019050919050565b5f6020820190508181035f83015261268181612648565b9050919050565b7f4a6f624d616e616765722e63616e63656c4a6f623a206a6f62206973206e6f745f8201527f20696e2070656e64696e67207374617465000000000000000000000000000000602082015250565b5f6126e26031836125c4565b91506126ed82612688565b604082019050919050565b5f6020820190508181035f83015261270f816126d6565b9050919050565b5f819050815f5260205f209050919050565b5f6020601f8301049050919050565b5f82821b905092915050565b5f600883026127727fffffffffffffffffffffffffffffffffffffffffffffffffffffffffffffffff82612737565b61277c8683612737565b95508019841693508086168417925050509392505050565b5f819050919050565b5f6127b76127b26127ad846120b5565b612794565b6120b5565b9050919050565b5f819050919050565b6127d08361279d565b6127e46127dc826127be565b848454612743565b825550505050565b5f5f905090565b6127fb6127ec565b6128068184846127c7565b505050565b5b818110156128295761281e5f826127f3565b60018101905061280c565b5050565b601f82111561286e5761283f81612716565b61284884612728565b81016020851015612857578190505b61286b61286385612728565b83018261280b565b50505b505050565b5f82821c905092915050565b5f61288e5f1984600802612873565b1980831691505092915050565b5f6128a6838361287f565b9150826002028217905092915050565b6128bf82611e35565b67ffffffffffffffff8111156128d8576128d7612299565b5b6128e28254612594565b6128ed82828561282d565b5f60209050601f83116001811461291e575f841561290c578287015190505b612916858261289b565b86555061297d565b601f19841661292c86612716565b5f5b828110156129535784890151825560018201915060208501945060208101905061292e565b86831015612970578489015161296c601f89168261287f565b8355505b6001600288020188555050505b505050505050565b5f8160c01b9050919050565b5f61299b82612985565b9050919050565b6129b36129ae82611ea5565b612991565b82525050565b5f8160601b9050919050565b5f6129cf826129b9565b9050919050565b5f6129e0826129c5565b9050919050565b6129f86129f382611ee6565b6129d6565b82525050565b5f612a0982856129a2565b600882019150612a1982846129e7565b6014820191508190509392505050565b5f612a348385611ff6565b9350612a41838584612341565b612a4a83611e5d565b840190509392505050565b5f606082019050612a685f83018861203e565b8181036020830152612a7b818688612a29565b90508181036040830152612a90818486612a29565b90509695505050505050565b7f5265656e7472616e637947756172643a207265656e7472616e742063616c6c005f82015250565b5f612ad0601f836125c4565b9150612adb82612a9c565b602082019050919050565b5f6020820190508181035f830152612afd81612ac4565b9050919050565b7f4a6f624d616e616765722e7375626d6974526573756c743a2063616c6c6572205f8201527f6973206e6f74207468652072656c617965720000000000000000000000000000602082015250565b5f612b5e6032836125c4565b9150612b6982612b04565b604082019050919050565b5f6020820190508181035f830152612b8b81612b52565b9050919050565b7f4a6f624d616e616765722e7375626d6974526573756c743a20496e76616c69645f8201527f207369676e617475726500000000000000000000000000000000000000000000602082015250565b5f612bec602a836125c4565b9150612bf782612b92565b604082019050919050565b5f6020820190508181035f830152612c1981612be0565b9050919050565b5f5ffd5b5f5ffd5b5f81519050612c3681611de0565b92915050565b5f81519050612c4a81612167565b92915050565b5f612c62612c5d84612311565b6122f7565b905082815260208101848484011115612c7e57612c7d612295565b5b612c89848285611e4f565b509392505050565b5f82601f830112612ca557612ca4612191565b5b8151612cb5848260208601612c50565b91505092915050565b5f60a08284031215612cd357612cd2612c20565b5b612cdd60a06122f7565b90505f612cec84828501612c28565b5f830152506020612cff84828501612c28565b6020830152506040612d1384828501612c3c565b604083015250606082015167ffffffffffffffff811115612d3757612d36612c24565b5b612d4384828501612c91565b606083015250608082015167ffffffffffffffff811115612d6757612d66612c24565b5b612d7384828501612c91565b60808301525092915050565b5f60208284031215612d9457612d93611dcf565b5b5f82015167ffffffffffffffff811115612db157612db0611dd3565b5b612dbd84828501612cbe565b91505092915050565b7f496e697469616c697a61626c653a20636f6e747261637420697320616c7265615f8201527f647920696e697469616c697a6564000000000000000000000000000000000000602082015250565b5f612e20602e836125c4565b9150612e2b82612dc6565b604082019050919050565b5f6020820190508181035f830152612e4d81612e14565b9050919050565b5f819050919050565b5f612e77612e72612e6d84612e54565b612794565b611f06565b9050919050565b612e8781612e5d565b82525050565b5f602082019050612ea05f830184612e7e565b92915050565b7f4f776e61626c653a206e6577206f776e657220697320746865207a65726f20615f8201527f6464726573730000000000000000000000000000000000000000000000000000602082015250565b5f612f006026836125c4565b9150612f0b82612ea6565b604082019050919050565b5f6020820190508181035f830152612f2d81612ef4565b9050919050565b5f60c08284031215612f4957612f48612c20565b5b612f5360c06122f7565b90505f612f628482850161217d565b5f830152506020612f758482850161217d565b6020830152506040612f8984828501611fb7565b604083015250606082013567ffffffffffffffff811115612fad57612fac612c24565b5b612fb984828501612390565b606083015250608082013567ffffffffffffffff811115612fdd57612fdc612c24565b5b612fe984828501612390565b60808301525060a0612ffd84828501611df6565b60a08301525092915050565b5f6020828403121561301e5761301d611dcf565b5b5f82013567ffffffffffffffff81111561303b5761303a611dd3565b5b61304784828501612f34565b91505092915050565b5f6040820190506130635f830186612126565b8181036020830152613076818486612a29565b9050949350505050565b5f7fffffffff0000000000000000000000000000000000000000000000000000000082169050919050565b6130b481613080565b81146130be575f5ffd5b50565b5f815190506130cf816130ab565b92915050565b5f602082840312156130ea576130e9611dcf565b5b5f6130f7848285016130c1565b91505092915050565b7f4a6f624d616e616765722e7375626d6974526573756c74466f724f66666368615f8201527f696e4a6f623a20496e76616c6964207369676e6174757265206f6e206a6f622060208201527f7265717565737400000000000000000000000000000000000000000000000000604082015250565b5f6131806047836125c4565b915061318b82613100565b606082019050919050565b5f6020820190508181035f8301526131ad81613174565b9050919050565b7f4a6f624d616e616765722e7375626d6974526573756c74466f724f66666368615f8201527f696e4a6f623a20496e76616c6964207369676e6174757265206f6e207265737560208201527f6c74000000000000000000000000000000000000000000000000000000000000604082015250565b5f6132346042836125c4565b915061323f826131b4565b606082019050919050565b5f6020820190508181035f83015261326181613228565b9050919050565b5f67ffffffffffffffff82111561328257613281612299565b5b602082029050602081019050919050565b5f6132a56132a084613268565b6122f7565b905080838252602082019050602084028301858111156132c8576132c7612199565b5b835b818110156132f157806132dd8882611df6565b8452602084019350506020810190506132ca565b5050509392505050565b5f82601f83011261330f5761330e612191565b5b813561331f848260208601613293565b91505092915050565b5f60e0828403121561333d5761333c612c20565b5b61334760e06122f7565b90505f61335684828501611df6565b5f83015250602061336984828501611df6565b602083015250604061337d84828501611df6565b60408301525060606133918482850161217d565b606083015250608082013567ffffffffffffffff8111156133b5576133b4612c24565b5b6133c184828501612390565b60808301525060a082013567ffffffffffffffff8111156133e5576133e4612c24565b5b6133f184828501612390565b60a08301525060c082013567ffffffffffffffff81111561341557613414612c24565b5b613421848285016132fb565b60c08301525092915050565b5f6020828403121561344257613441611dcf565b5b5f82013567ffffffffffffffff81111561345f5761345e611dd3565b5b61346b84828501613328565b91505092915050565b7f4a6f624d616e616765722e7375626d6974526573756c74466f724f66666368615f8201527f696e4a6f623a206a6f62204944207369676e656420627920636f70726f63657360208201527f736f7220646f65736e2774206d61746368206a6f62204944206f66206a6f622060408201527f7265717565737400000000000000000000000000000000000000000000000000606082015250565b5f61351a6067836125c4565b915061352582613474565b608082019050919050565b5f6020820190508181035f8301526135478161350e565b9050919050565b7f4a6f624d616e616765722e7375626d6974526573756c74466f724f66666368615f8201527f696e4a6f623a206f6666636861696e20696e7075742068617368207369676e6560208201527f6420627920636f70726f636573736f7220646f65736e2774206d61746368206f60408201527f6666636861696e20696e7075742068617368206f66206a6f622072657175657360608201527f7400000000000000000000000000000000000000000000000000000000000000608082015250565b5f61361a6081836125c4565b91506136258261354e565b60a082019050919050565b5f6020820190508181035f8301526136478161360e565b9050919050565b7f4e487b71000000000000000000000000000000000000000000000000000000005f52603260045260245ffd5b7f4a6f624d616e616765722e7375626d6974526573756c74466f724f66666368615f8201527f696e4a6f623a20676976656e20626c6f62206861736820646f6573206e6f742060208201527f6d61746368000000000000000000000000000000000000000000000000000000604082015250565b5f6136fb6045836125c4565b91506137068261367b565b606082019050919050565b5f6020820190508181035f830152613728816136ef565b9050919050565b5f6060820190506137425f830186612126565b81810360208301526137548185612006565b90506137636040830184612126565b949350505050565b7f4f776e61626c653a2063616c6c6572206973206e6f7420746865206f776e65725f82015250565b5f61379f6020836125c4565b91506137aa8261376b565b602082019050919050565b5f6020820190508181035f8301526137cc81613793565b9050919050565b7f4a6f624d616e616765722e6372656174654a6f623a206a6f6220616c726561645f8201527f792065786973747320776974682074686973206e6f6e636520616e6420636f6e60208201527f73756d6572000000000000000000000000000000000000000000000000000000604082015250565b5f6138536045836125c4565b915061385e826137d3565b606082019050919050565b5f6020820190508181035f83015261388081613847565b9050919050565b5f60208201905061389a5f83018461203e565b92915050565b7f4a6f624d616e616765722e7375626d6974526573756c743a206a6f62206973205f8201527f6e6f7420696e2070656e64696e67207374617465000000000000000000000000602082015250565b5f6138fa6034836125c4565b9150613905826138a0565b604082019050919050565b5f6020820190508181035f830152613927816138ee565b9050919050565b5f6020828403121561394357613942611dcf565b5b5f82015167ffffffffffffffff8111156139605761395f611dd3565b5b61396c84828501612c91565b91505092915050565b7f4a6f624d616e616765722e7375626d6974526573756c743a206f6e636861696e5f8201527f20696e707574207369676e656420627920636f70726f636573736f7220646f6560208201527f736e2774206d61746368206f6e636861696e20696e707574207375626d69747460408201527f65642077697468206a6f62000000000000000000000000000000000000000000606082015250565b5f613a1b606b836125c4565b9150613a2682613975565b608082019050919050565b5f6020820190508181035f830152613a4881613a0f565b9050919050565b7f4a6f624d616e616765722e7375626d6974526573756c743a2070726f6772616d5f8201527f204944207369676e656420627920636f70726f636573736f7220646f65736e2760208201527f74206d617463682070726f6772616d204944207375626d69747465642077697460408201527f68206a6f62000000000000000000000000000000000000000000000000000000606082015250565b5f613af56065836125c4565b9150613b0082613a4f565b608082019050919050565b5f6020820190508181035f830152613b2281613ae9565b9050919050565b7f4a6f624d616e616765722e7375626d6974526573756c743a206d6178206379635f8201527f6c6573207369676e656420627920636f70726f636573736f7220646f65736e2760208201527f74206d61746368206d6178206379636c6573207375626d69747465642077697460408201527f68206a6f62000000000000000000000000000000000000000000000000000000606082015250565b5f613bcf6065836125c4565b9150613bda82613b29565b608082019050919050565b5f6020820190508181035f830152613bfc81613bc3565b9050919050565b5f6020820190508181035f830152613c1b8184612006565b905092915050565b5f604082019050613c365f830185612126565b8181036020830152613c488184612006565b9050939250505056fea26469706673582212205ff9eb281659760c9b44b5d7a86ea3a2ef5d789dc1f66d2920a4bcbcc240e27f64736f6c634300081c0033","linkReferences":{}},"methodIdentifiers":{"cancelJob(bytes32)":"5fae1450","coprocessorOperator()":"92aa4c28","createJob(uint64,bytes,bytes,uint64)":"a8f63fb6","getCoprocessorOperator()":"d332ca87","getJobMetadata(bytes32)":"0b827bfc","getRelayer()":"bdc50373","initializeJobManager(address,address,address)":"f1c52b5d","jobIDToBlobhashes(bytes32,uint256)":"61796952","jobIDToMetadata(bytes32)":"5ada462e","owner()":"8da5cb5b","relayer()":"8406c079","renounceOwnership()":"715018a6","setCoprocessorOperator(address)":"33db8f79","setRelayer(address)":"6548e9bc","submitResult(bytes,bytes)":"ea253487","submitResultForOffchainJob(bytes,bytes,bytes,bytes)":"f4c67279","transferOwnership(address)":"f2fde38b"},"id":66}