{"abi":[{"type":"constructor","inputs":[],"stateMutability":"nonpayable"},{"type":"function","name":"addressToBalance","inputs":[{"name":"","type":"address","internalType":"address"}],"outputs":[{"name":"","type":"uint256","internalType":"uint256"}],"stateMutability":"view"},{"type":"function","name":"getBalance","inputs":[{"name":"addr","type":"address","internalType":"address"}],"outputs":[{"name":"","type":"uint256","internalType":"uint256"}],"stateMutability":"view"},{"type":"function","name":"getJobResult","inputs":[{"name":"jobID","type":"bytes32","internalType":"bytes32"}],"outputs":[{"name":"","type":"bytes","internalType":"bytes"}],"stateMutability":"view"},{"type":"function","name":"getNextNonce","inputs":[],"outputs":[{"name":"","type":"uint64","internalType":"uint64"}],"stateMutability":"view"},{"type":"function","name":"getOffchainInputHashForJob","inputs":[{"name":"jobID","type":"bytes32","internalType":"bytes32"}],"outputs":[{"name":"","type":"bytes32","internalType":"bytes32"}],"stateMutability":"view"},{"type":"function","name":"getOffchainSigner","inputs":[],"outputs":[{"name":"","type":"address","internalType":"address"}],"stateMutability":"view"},{"type":"function","name":"getOnchainInputForJob","inputs":[{"name":"jobID","type":"bytes32","internalType":"bytes32"}],"outputs":[{"name":"","type":"bytes","internalType":"bytes"}],"stateMutability":"view"},{"type":"function","name":"initialize","inputs":[{"name":"initialOwner","type":"address","internalType":"address"},{"name":"jobManager","type":"address","internalType":"address"},{"name":"initialMaxNonce","type":"uint64","internalType":"uint64"},{"name":"offchainSigner","type":"address","internalType":"address"}],"outputs":[],"stateMutability":"nonpayable"},{"type":"function","name":"initialize","inputs":[{"name":"initialOwner","type":"address","internalType":"address"},{"name":"jobManager","type":"address","internalType":"address"},{"name":"initialMaxNonce","type":"uint64","internalType":"uint64"}],"outputs":[],"stateMutability":"nonpayable"},{"type":"function","name":"initialize","inputs":[{"name":"_offchainSigner","type":"address","internalType":"address"}],"outputs":[],"stateMutability":"nonpayable"},{"type":"function","name":"isValidSignature","inputs":[{"name":"messageHash","type":"bytes32","internalType":"bytes32"},{"name":"signature","type":"bytes","internalType":"bytes"}],"outputs":[{"name":"","type":"bytes4","internalType":"bytes4"}],"stateMutability":"view"},{"type":"function","name":"jobIDToResult","inputs":[{"name":"","type":"bytes32","internalType":"bytes32"}],"outputs":[{"name":"","type":"bytes","internalType":"bytes"}],"stateMutability":"view"},{"type":"function","name":"maxNonce","inputs":[],"outputs":[{"name":"","type":"uint64","internalType":"uint64"}],"stateMutability":"view"},{"type":"function","name":"owner","inputs":[],"outputs":[{"name":"","type":"address","internalType":"address"}],"stateMutability":"view"},{"type":"function","name":"receiveResult","inputs":[{"name":"jobID","type":"bytes32","internalType":"bytes32"},{"name":"result","type":"bytes","internalType":"bytes"}],"outputs":[],"stateMutability":"nonpayable"},{"type":"function","name":"renounceOwnership","inputs":[],"outputs":[],"stateMutability":"nonpayable"},{"type":"function","name":"requestBalance","inputs":[{"name":"programID","type":"bytes","internalType":"bytes"},{"name":"addr","type":"address","internalType":"address"}],"outputs":[{"name":"","type":"bytes32","internalType":"bytes32"}],"stateMutability":"nonpayable"},{"type":"function","name":"setInputsForJob","inputs":[{"name":"jobID","type":"bytes32","internalType":"bytes32"},{"name":"onchainInput","type":"bytes","internalType":"bytes"},{"name":"offchainInputHash","type":"bytes32","internalType":"bytes32"}],"outputs":[],"stateMutability":"nonpayable"},{"type":"function","name":"transferOwnership","inputs":[{"name":"newOwner","type":"address","internalType":"address"}],"outputs":[],"stateMutability":"nonpayable"},{"type":"function","name":"updateLatestNonce","inputs":[{"name":"nonce","type":"uint64","internalType":"uint64"}],"outputs":[],"stateMutability":"nonpayable"},{"type":"event","name":"Initialized","inputs":[{"name":"version","type":"uint8","indexed":false,"internalType":"uint8"}],"anonymous":false},{"type":"event","name":"OwnershipTransferred","inputs":[{"name":"previousOwner","type":"address","indexed":true,"internalType":"address"},{"name":"newOwner","type":"address","indexed":true,"internalType":"address"}],"anonymous":false}],"bytecode":{"object":"0x608060405234801561000f575f5ffd5b5061001e61002360201b60201c565b6101b4565b5f60019054906101000a900460ff1615610072576040517f08c379a000000000000000000000000000000000000000000000000000000000815260040161006990610162565b60405180910390fd5b60ff80165f5f9054906101000a900460ff1660ff1610156100e05760ff5f5f6101000a81548160ff021916908360ff1602179055507f7f26b83ff96e1f2b6a682f133852f6798a09c465da95921460cefb384740249860ff6040516100d7919061019b565b60405180910390a15b565b5f82825260208201905092915050565b7f496e697469616c697a61626c653a20636f6e747261637420697320696e6974695f8201527f616c697a696e6700000000000000000000000000000000000000000000000000602082015250565b5f61014c6027836100e2565b9150610157826100f2565b604082019050919050565b5f6020820190508181035f83015261017981610140565b9050919050565b5f60ff82169050919050565b61019581610180565b82525050565b5f6020820190506101ae5f83018461018c565b92915050565b611f3c806101c15f395ff3fe608060405234801561000f575f5ffd5b506004361061012a575f3560e01c8063a4af999d116100ab578063c74d99211161006f578063c74d99211461033e578063f0bb3feb1461036e578063f0ce077c1461038a578063f2fde38b146103a8578063f8b2cb4f146103c45761012a565b8063a4af999d1461029a578063b75880a4146102b8578063bd7084b2146102d4578063c072fcad146102f2578063c4d66de8146103225761012a565b80635dd80855116100f25780635dd808551461020a578063712879da14610226578063715018a6146102565780637879ec31146102605780638da5cb5b1461027c5761012a565b80631626ba7e1461012e578063237c980a1461015e5780634e04275f1461018e578063535fb15e146101aa57806354c04a4f146101da575b5f5ffd5b6101486004803603810190610143919061126c565b6103f4565b6040516101559190611300565b60405180910390f35b61017860048036038101906101739190611373565b610478565b60405161018591906113b6565b60405180910390f35b6101a860048036038101906101a3919061140c565b61048d565b005b6101c460048036038101906101bf9190611470565b6105d7565b6040516101d191906114fb565b60405180910390f35b6101f460048036038101906101ef9190611470565b61067a565b60405161020191906114fb565b60405180910390f35b610224600480360381019061021f9190611578565b61071b565b005b610240600480360381019061023b91906115d5565b6107fc565b60405161024d9190611641565b60405180910390f35b61025e610876565b005b61027a6004803603810190610275919061165a565b610889565b005b61028461094e565b60405161029191906116b9565b60405180910390f35b6102a2610976565b6040516102af91906116b9565b60405180910390f35b6102d260048036038101906102cd91906116d2565b61099e565b005b6102dc610a8c565b6040516102e9919061170c565b60405180910390f35b61030c60048036038101906103079190611470565b610ab5565b6040516103199190611641565b60405180910390f35b61033c60048036038101906103379190611373565b610ad2565b005b61035860048036038101906103539190611470565b610b63565b60405161036591906114fb565b60405180910390f35b61038860048036038101906103839190611725565b610bfe565b005b610392610cc1565b60405161039f919061170c565b60405180910390f35b6103c260048036038101906103bd9190611373565b610cdb565b005b6103de60048036038101906103d99190611373565b610d5d565b6040516103eb91906113b6565b60405180910390f35b5f5f6104008484610da3565b905060965f9054906101000a900473ffffffffffffffffffffffffffffffffffffffff1673ffffffffffffffffffffffffffffffffffffffff168173ffffffffffffffffffffffffffffffffffffffff160361046657631626ba7e60e01b915050610472565b63ffffffff60e01b9150505b92915050565b6097602052805f5260405f205f915090505481565b5f5f60019054906101000a900460ff161590508080156104bd575060015f5f9054906101000a900460ff1660ff16105b806104ea57506104cc30610e2a565b1580156104e9575060015f5f9054906101000a900460ff1660ff16145b5b610529576040517f08c379a000000000000000000000000000000000000000000000000000000000815260040161052090611811565b60405180910390fd5b60015f5f6101000a81548160ff021916908360ff16021790555080156105645760015f60016101000a81548160ff0219169083151502179055505b61056f858585610889565b61057882610ad2565b80156105d0575f5f60016101000a81548160ff0219169083151502179055507f7f26b83ff96e1f2b6a682f133852f6798a09c465da95921460cefb384740249860016040516105c7919061187d565b60405180910390a15b5050505050565b606060665f8381526020019081526020015f205f0180546105f7906118c3565b80601f0160208091040260200160405190810160405280929190818152602001828054610623906118c3565b801561066e5780601f106106455761010080835404028352916020019161066e565b820191905f5260205f20905b81548152906001019060200180831161065157829003601f168201915b50505050509050919050565b606060985f8381526020019081526020015f208054610698906118c3565b80601f01602080910402602001604051908101604052809291908181526020018280546106c4906118c3565b801561070f5780601f106106e65761010080835404028352916020019161070f565b820191905f5260205f20905b8154815290600101906020018083116106f257829003601f168201915b50505050509050919050565b60655f9054906101000a900473ffffffffffffffffffffffffffffffffffffffff1673ffffffffffffffffffffffffffffffffffffffff163373ffffffffffffffffffffffffffffffffffffffff16146107aa576040517f08c379a00000000000000000000000000000000000000000000000000000000081526004016107a190611963565b60405180910390fd5b6107f78383838080601f0160208091040260200160405190810160405280939291908181526020018383808284375f81840152601f19601f82011690508083019250505050505050610e4c565b505050565b5f61086d84848080601f0160208091040260200160405190810160405280939291908181526020018383808284375f81840152601f19601f820116905080830192505050505050508360405160200161085591906116b9565b604051602081830303815290604052620f4240610ecd565b90509392505050565b61087e610fa4565b6108875f611022565b565b5f60019054906101000a900460ff166108d7576040517f08c379a00000000000000000000000000000000000000000000000000000000081526004016108ce906119f1565b60405180910390fd5b6108e083611022565b8160655f6101000a81548173ffffffffffffffffffffffffffffffffffffffff021916908373ffffffffffffffffffffffffffffffffffffffff16021790555080606560146101000a81548167ffffffffffffffff021916908367ffffffffffffffff160217905550505050565b5f60335f9054906101000a900473ffffffffffffffffffffffffffffffffffffffff16905090565b5f60965f9054906101000a900473ffffffffffffffffffffffffffffffffffffffff16905090565b60655f9054906101000a900473ffffffffffffffffffffffffffffffffffffffff1673ffffffffffffffffffffffffffffffffffffffff163373ffffffffffffffffffffffffffffffffffffffff1614610a2d576040517f08c379a0000000000000000000000000000000000000000000000000000000008152600401610a2490611963565b60405180910390fd5b606560149054906101000a900467ffffffffffffffff1667ffffffffffffffff168167ffffffffffffffff161115610a895780606560146101000a81548167ffffffffffffffff021916908367ffffffffffffffff1602179055505b50565b5f6001606560149054906101000a900467ffffffffffffffff16610ab09190611a3c565b905090565b5f60665f8381526020019081526020015f20600101549050919050565b5f60019054906101000a900460ff16610b20576040517f08c379a0000000000000000000000000000000000000000000000000000000008152600401610b17906119f1565b60405180910390fd5b8060965f6101000a81548173ffffffffffffffffffffffffffffffffffffffff021916908373ffffffffffffffffffffffffffffffffffffffff16021790555050565b6098602052805f5260405f205f915090508054610b7f906118c3565b80601f0160208091040260200160405190810160405280929190818152602001828054610bab906118c3565b8015610bf65780601f10610bcd57610100808354040283529160200191610bf6565b820191905f5260205f20905b815481529060010190602001808311610bd957829003601f168201915b505050505081565b60655f9054906101000a900473ffffffffffffffffffffffffffffffffffffffff1673ffffffffffffffffffffffffffffffffffffffff163373ffffffffffffffffffffffffffffffffffffffff1614610c8d576040517f08c379a0000000000000000000000000000000000000000000000000000000008152600401610c8490611963565b60405180910390fd5b5f60665f8581526020019081526020015f20905082815f019081610cb19190611c0e565b5081816001018190555050505050565b606560149054906101000a900467ffffffffffffffff1681565b610ce3610fa4565b5f73ffffffffffffffffffffffffffffffffffffffff168173ffffffffffffffffffffffffffffffffffffffff1603610d51576040517f08c379a0000000000000000000000000000000000000000000000000000000008152600401610d4890611d4d565b60405180910390fd5b610d5a81611022565b50565b5f60975f8373ffffffffffffffffffffffffffffffffffffffff1673ffffffffffffffffffffffffffffffffffffffff1681526020019081526020015f20549050919050565b5f60019050604051600115610e0957835f5260208301516040526040835103610de5576040830151601b8160ff1c016020528060011b60011c60605250610e09565b6041835103610e055760608301515f1a6020526040830151606052610e09565b5f91505b6020604060805f855afa505f6060523d606018519150806040525092915050565b5f5f8273ffffffffffffffffffffffffffffffffffffffff163b119050919050565b5f5f82806020019051810190610e629190611dd0565b915091508060975f8473ffffffffffffffffffffffffffffffffffffffff1673ffffffffffffffffffffffffffffffffffffffff1681526020019081526020015f20819055508260985f8681526020019081526020015f209081610ec69190611c0e565b5050505050565b5f5f60655f9054906101000a900473ffffffffffffffffffffffffffffffffffffffff1673ffffffffffffffffffffffffffffffffffffffff1663a8f63fb6610f14610a8c565b8787876040518563ffffffff1660e01b8152600401610f369493929190611e0e565b6020604051808303815f875af1158015610f52573d5f5f3e3d5ffd5b505050506040513d601f19601f82011682018060405250810190610f769190611e73565b90508360665f8381526020019081526020015f205f019081610f989190611c0e565b50809150509392505050565b610fac6110e5565b73ffffffffffffffffffffffffffffffffffffffff16610fca61094e565b73ffffffffffffffffffffffffffffffffffffffff1614611020576040517f08c379a000000000000000000000000000000000000000000000000000000000815260040161101790611ee8565b60405180910390fd5b565b5f60335f9054906101000a900473ffffffffffffffffffffffffffffffffffffffff1690508160335f6101000a81548173ffffffffffffffffffffffffffffffffffffffff021916908373ffffffffffffffffffffffffffffffffffffffff1602179055508173ffffffffffffffffffffffffffffffffffffffff168173ffffffffffffffffffffffffffffffffffffffff167f8be0079c531659141344cd1fd0a4f28419497f9722a3daafe3b4186f6b6457e060405160405180910390a35050565b5f33905090565b5f604051905090565b5f5ffd5b5f5ffd5b5f819050919050565b61110f816110fd565b8114611119575f5ffd5b50565b5f8135905061112a81611106565b92915050565b5f5ffd5b5f5ffd5b5f601f19601f8301169050919050565b7f4e487b71000000000000000000000000000000000000000000000000000000005f52604160045260245ffd5b61117e82611138565b810181811067ffffffffffffffff8211171561119d5761119c611148565b5b80604052505050565b5f6111af6110ec565b90506111bb8282611175565b919050565b5f67ffffffffffffffff8211156111da576111d9611148565b5b6111e382611138565b9050602081019050919050565b828183375f83830152505050565b5f61121061120b846111c0565b6111a6565b90508281526020810184848401111561122c5761122b611134565b5b6112378482856111f0565b509392505050565b5f82601f83011261125357611252611130565b5b81356112638482602086016111fe565b91505092915050565b5f5f60408385031215611282576112816110f5565b5b5f61128f8582860161111c565b925050602083013567ffffffffffffffff8111156112b0576112af6110f9565b5b6112bc8582860161123f565b9150509250929050565b5f7fffffffff0000000000000000000000000000000000000000000000000000000082169050919050565b6112fa816112c6565b82525050565b5f6020820190506113135f8301846112f1565b92915050565b5f73ffffffffffffffffffffffffffffffffffffffff82169050919050565b5f61134282611319565b9050919050565b61135281611338565b811461135c575f5ffd5b50565b5f8135905061136d81611349565b92915050565b5f60208284031215611388576113876110f5565b5b5f6113958482850161135f565b91505092915050565b5f819050919050565b6113b08161139e565b82525050565b5f6020820190506113c95f8301846113a7565b92915050565b5f67ffffffffffffffff82169050919050565b6113eb816113cf565b81146113f5575f5ffd5b50565b5f81359050611406816113e2565b92915050565b5f5f5f5f60808587031215611424576114236110f5565b5b5f6114318782880161135f565b94505060206114428782880161135f565b9350506040611453878288016113f8565b92505060606114648782880161135f565b91505092959194509250565b5f60208284031215611485576114846110f5565b5b5f6114928482850161111c565b91505092915050565b5f81519050919050565b5f82825260208201905092915050565b8281835e5f83830152505050565b5f6114cd8261149b565b6114d781856114a5565b93506114e78185602086016114b5565b6114f081611138565b840191505092915050565b5f6020820190508181035f83015261151381846114c3565b905092915050565b5f5ffd5b5f5ffd5b5f5f83601f84011261153857611537611130565b5b8235905067ffffffffffffffff8111156115555761155461151b565b5b6020830191508360018202830111156115715761157061151f565b5b9250929050565b5f5f5f6040848603121561158f5761158e6110f5565b5b5f61159c8682870161111c565b935050602084013567ffffffffffffffff8111156115bd576115bc6110f9565b5b6115c986828701611523565b92509250509250925092565b5f5f5f604084860312156115ec576115eb6110f5565b5b5f84013567ffffffffffffffff811115611609576116086110f9565b5b61161586828701611523565b935093505060206116288682870161135f565b9150509250925092565b61163b816110fd565b82525050565b5f6020820190506116545f830184611632565b92915050565b5f5f5f60608486031215611671576116706110f5565b5b5f61167e8682870161135f565b935050602061168f8682870161135f565b92505060406116a0868287016113f8565b9150509250925092565b6116b381611338565b82525050565b5f6020820190506116cc5f8301846116aa565b92915050565b5f602082840312156116e7576116e66110f5565b5b5f6116f4848285016113f8565b91505092915050565b611706816113cf565b82525050565b5f60208201905061171f5f8301846116fd565b92915050565b5f5f5f6060848603121561173c5761173b6110f5565b5b5f6117498682870161111c565b935050602084013567ffffffffffffffff81111561176a576117696110f9565b5b6117768682870161123f565b92505060406117878682870161111c565b9150509250925092565b5f82825260208201905092915050565b7f496e697469616c697a61626c653a20636f6e747261637420697320616c7265615f8201527f647920696e697469616c697a6564000000000000000000000000000000000000602082015250565b5f6117fb602e83611791565b9150611806826117a1565b604082019050919050565b5f6020820190508181035f830152611828816117ef565b9050919050565b5f819050919050565b5f60ff82169050919050565b5f819050919050565b5f61186761186261185d8461182f565b611844565b611838565b9050919050565b6118778161184d565b82525050565b5f6020820190506118905f83018461186e565b92915050565b7f4e487b71000000000000000000000000000000000000000000000000000000005f52602260045260245ffd5b5f60028204905060018216806118da57607f821691505b6020821081036118ed576118ec611896565b5b50919050565b7f436f6e73756d65722e6f6e6c794a6f624d616e616765723a2063616c6c6572205f8201527f6973206e6f7420746865206a6f62206d616e6167657200000000000000000000602082015250565b5f61194d603683611791565b9150611958826118f3565b604082019050919050565b5f6020820190508181035f83015261197a81611941565b9050919050565b7f496e697469616c697a61626c653a20636f6e7472616374206973206e6f7420695f8201527f6e697469616c697a696e67000000000000000000000000000000000000000000602082015250565b5f6119db602b83611791565b91506119e682611981565b604082019050919050565b5f6020820190508181035f830152611a08816119cf565b9050919050565b7f4e487b71000000000000000000000000000000000000000000000000000000005f52601160045260245ffd5b5f611a46826113cf565b9150611a51836113cf565b9250828201905067ffffffffffffffff811115611a7157611a70611a0f565b5b92915050565b5f819050815f5260205f209050919050565b5f6020601f8301049050919050565b5f82821b905092915050565b5f60088302611ad37fffffffffffffffffffffffffffffffffffffffffffffffffffffffffffffffff82611a98565b611add8683611a98565b95508019841693508086168417925050509392505050565b5f611b0f611b0a611b058461139e565b611844565b61139e565b9050919050565b5f819050919050565b611b2883611af5565b611b3c611b3482611b16565b848454611aa4565b825550505050565b5f5f905090565b611b53611b44565b611b5e818484611b1f565b505050565b5b81811015611b8157611b765f82611b4b565b600181019050611b64565b5050565b601f821115611bc657611b9781611a77565b611ba084611a89565b81016020851015611baf578190505b611bc3611bbb85611a89565b830182611b63565b50505b505050565b5f82821c905092915050565b5f611be65f1984600802611bcb565b1980831691505092915050565b5f611bfe8383611bd7565b9150826002028217905092915050565b611c178261149b565b67ffffffffffffffff811115611c3057611c2f611148565b5b611c3a82546118c3565b611c45828285611b85565b5f60209050601f831160018114611c76575f8415611c64578287015190505b611c6e8582611bf3565b865550611cd5565b601f198416611c8486611a77565b5f5b82811015611cab57848901518255600182019150602085019450602081019050611c86565b86831015611cc85784890151611cc4601f891682611bd7565b8355505b6001600288020188555050505b505050505050565b7f4f776e61626c653a206e6577206f776e657220697320746865207a65726f20615f8201527f6464726573730000000000000000000000000000000000000000000000000000602082015250565b5f611d37602683611791565b9150611d4282611cdd565b604082019050919050565b5f6020820190508181035f830152611d6481611d2b565b9050919050565b5f611d7582611319565b9050919050565b611d8581611d6b565b8114611d8f575f5ffd5b50565b5f81519050611da081611d7c565b92915050565b611daf8161139e565b8114611db9575f5ffd5b50565b5f81519050611dca81611da6565b92915050565b5f5f60408385031215611de657611de56110f5565b5b5f611df385828601611d92565b9250506020611e0485828601611dbc565b9150509250929050565b5f608082019050611e215f8301876116fd565b8181036020830152611e3381866114c3565b90508181036040830152611e4781856114c3565b9050611e5660608301846116fd565b95945050505050565b5f81519050611e6d81611106565b92915050565b5f60208284031215611e8857611e876110f5565b5b5f611e9584828501611e5f565b91505092915050565b7f4f776e61626c653a2063616c6c6572206973206e6f7420746865206f776e65725f82015250565b5f611ed2602083611791565b9150611edd82611e9e565b602082019050919050565b5f6020820190508181035f830152611eff81611ec6565b905091905056fea264697066735822122001b9be799d4e013abde346993b63022e8ccf1dc998e307ac0b956d1a80d2fcf164736f6c634300081c0033","linkReferences":{}},"methodIdentifiers":{"addressToBalance(address)":"237c980a","getBalance(address)":"f8b2cb4f","getJobResult(bytes32)":"54c04a4f","getNextNonce()":"bd7084b2","getOffchainInputHashForJob(bytes32)":"c072fcad","getOffchainSigner()":"a4af999d","getOnchainInputForJob(bytes32)":"535fb15e","initialize(address)":"c4d66de8","initialize(address,address,uint64)":"7879ec31","initialize(address,address,uint64,address)":"4e04275f","isValidSignature(bytes32,bytes)":"1626ba7e","jobIDToResult(bytes32)":"c74d9921","maxNonce()":"f0ce077c","owner()":"8da5cb5b","receiveResult(bytes32,bytes)":"5dd80855","renounceOwnership()":"715018a6","requestBalance(bytes,address)":"712879da","setInputsForJob(bytes32,bytes,bytes32)":"f0bb3feb","transferOwnership(address)":"f2fde38b","updateLatestNonce(uint64)":"b75880a4"},"id":75}