{"abi":[{"type":"constructor","inputs":[],"stateMutability":"nonpayable"},{"type":"function","name":"addressToBalance","inputs":[{"name":"","type":"address","internalType":"address"}],"outputs":[{"name":"","type":"uint256","internalType":"uint256"}],"stateMutability":"view"},{"type":"function","name":"getBalance","inputs":[{"name":"addr","type":"address","internalType":"address"}],"outputs":[{"name":"","type":"uint256","internalType":"uint256"}],"stateMutability":"view"},{"type":"function","name":"getJobResult","inputs":[{"name":"jobID","type":"bytes32","internalType":"bytes32"}],"outputs":[{"name":"","type":"bytes","internalType":"bytes"}],"stateMutability":"view"},{"type":"function","name":"getNextNonce","inputs":[],"outputs":[{"name":"","type":"uint64","internalType":"uint64"}],"stateMutability":"view"},{"type":"function","name":"getOffchainInputHashForJob","inputs":[{"name":"jobID","type":"bytes32","internalType":"bytes32"}],"outputs":[{"name":"","type":"bytes32","internalType":"bytes32"}],"stateMutability":"view"},{"type":"function","name":"getOffchainSigner","inputs":[],"outputs":[{"name":"","type":"address","internalType":"address"}],"stateMutability":"view"},{"type":"function","name":"getOnchainInputForJob","inputs":[{"name":"jobID","type":"bytes32","internalType":"bytes32"}],"outputs":[{"name":"","type":"bytes","internalType":"bytes"}],"stateMutability":"view"},{"type":"function","name":"initialize","inputs":[{"name":"initialOwner","type":"address","internalType":"address"},{"name":"jobManager","type":"address","internalType":"address"},{"name":"initialMaxNonce","type":"uint64","internalType":"uint64"},{"name":"offchainSigner","type":"address","internalType":"address"}],"outputs":[],"stateMutability":"nonpayable"},{"type":"function","name":"initialize","inputs":[{"name":"initialOwner","type":"address","internalType":"address"},{"name":"jobManager","type":"address","internalType":"address"},{"name":"initialMaxNonce","type":"uint64","internalType":"uint64"}],"outputs":[],"stateMutability":"nonpayable"},{"type":"function","name":"initialize","inputs":[{"name":"_offchainSigner","type":"address","internalType":"address"}],"outputs":[],"stateMutability":"nonpayable"},{"type":"function","name":"isValidSignature","inputs":[{"name":"messageHash","type":"bytes32","internalType":"bytes32"},{"name":"signature","type":"bytes","internalType":"bytes"}],"outputs":[{"name":"","type":"bytes4","internalType":"bytes4"}],"stateMutability":"view"},{"type":"function","name":"jobIDToResult","inputs":[{"name":"","type":"bytes32","internalType":"bytes32"}],"outputs":[{"name":"","type":"bytes","internalType":"bytes"}],"stateMutability":"view"},{"type":"function","name":"maxNonce","inputs":[],"outputs":[{"name":"","type":"uint64","internalType":"uint64"}],"stateMutability":"view"},{"type":"function","name":"owner","inputs":[],"outputs":[{"name":"","type":"address","internalType":"address"}],"stateMutability":"view"},{"type":"function","name":"receiveResult","inputs":[{"name":"jobID","type":"bytes32","internalType":"bytes32"},{"name":"result","type":"bytes","internalType":"bytes"}],"outputs":[],"stateMutability":"nonpayable"},{"type":"function","name":"renounceOwnership","inputs":[],"outputs":[],"stateMutability":"nonpayable"},{"type":"function","name":"requestBalance","inputs":[{"name":"programID","type":"bytes","internalType":"bytes"},{"name":"addr","type":"address","internalType":"address"}],"outputs":[{"name":"","type":"bytes32","internalType":"bytes32"}],"stateMutability":"nonpayable"},{"type":"function","name":"setInputsForJob","inputs":[{"name":"jobID","type":"bytes32","internalType":"bytes32"},{"name":"onchainInput","type":"bytes","internalType":"bytes"},{"name":"offchainInputHash","type":"bytes32","internalType":"bytes32"}],"outputs":[],"stateMutability":"nonpayable"},{"type":"function","name":"transferOwnership","inputs":[{"name":"newOwner","type":"address","internalType":"address"}],"outputs":[],"stateMutability":"nonpayable"},{"type":"function","name":"updateLatestNonce","inputs":[{"name":"nonce","type":"uint64","internalType":"uint64"}],"outputs":[],"stateMutability":"nonpayable"},{"type":"event","name":"Initialized","inputs":[{"name":"version","type":"uint8","indexed":false,"internalType":"uint8"}],"anonymous":false},{"type":"event","name":"OwnershipTransferred","inputs":[{"name":"previousOwner","type":"address","indexed":true,"internalType":"address"},{"name":"newOwner","type":"address","indexed":true,"internalType":"address"}],"anonymous":false}],"bytecode":{"object":"0x6080604052348015600e575f5ffd5b5060156019565b60d4565b5f54610100900460ff161560835760405162461bcd60e51b815260206004820152602760248201527f496e697469616c697a61626c653a20636f6e747261637420697320696e697469604482015266616c697a696e6760c81b606482015260840160405180910390fd5b5f5460ff908116101560d2575f805460ff191660ff9081179091556040519081527f7f26b83ff96e1f2b6a682f133852f6798a09c465da95921460cefb38474024989060200160405180910390a15b565b611125806100e15f395ff3fe608060405234801561000f575f5ffd5b5060043610610127575f3560e01c8063a4af999d116100a9578063c74d99211161006e578063c74d9921146102b0578063f0bb3feb146102c3578063f0ce077c146102d6578063f2fde38b146102f0578063f8b2cb4f14610303575f5ffd5b8063a4af999d14610237578063b75880a414610248578063bd7084b21461025b578063c072fcad1461027b578063c4d66de81461029d575f5ffd5b80635dd80855116100ef5780635dd80855146101d1578063712879da146101e4578063715018a6146101f75780637879ec31146101ff5780638da5cb5b14610212575f5ffd5b80631626ba7e1461012b578063237c980a1461015c5780634e04275f14610189578063535fb15e1461019e57806354c04a4f146101be575b5f5ffd5b61013e610139366004610b94565b61032b565b6040516001600160e01b031990911681526020015b60405180910390f35b61017b61016a366004610beb565b60686020525f908152604090205481565b604051908152602001610153565b61019c610197366004610c28565b610373565b005b6101b16101ac366004610c7f565b610493565b6040516101539190610cc4565b6101b16101cc366004610c7f565b610532565b61019c6101df366004610d1a565b61054e565b61017b6101f2366004610d61565b6105bc565b61019c610630565b61019c61020d366004610db3565b610643565b6033546001600160a01b03165b6040516001600160a01b039091168152602001610153565b6067546001600160a01b031661021f565b61019c610256366004610df7565b6106a8565b610263610719565b6040516001600160401b039091168152602001610153565b61017b610289366004610c7f565b5f9081526066602052604090206001015490565b61019c6102ab366004610beb565b61073e565b6101b16102be366004610c7f565b610786565b61019c6102d1366004610e10565b61081d565b60655461026390600160a01b90046001600160401b031681565b61019c6102fe366004610beb565b610868565b61017b610311366004610beb565b6001600160a01b03165f9081526068602052604090205490565b5f5f61033784846108de565b6067549091506001600160a01b03908116908216036103605750630b135d3f60e11b905061036d565b506001600160e01b031990505b92915050565b5f54610100900460ff161580801561039157505f54600160ff909116105b806103aa5750303b1580156103aa57505f5460ff166001145b6104125760405162461bcd60e51b815260206004820152602e60248201527f496e697469616c697a61626c653a20636f6e747261637420697320616c72656160448201526d191e481a5b9a5d1a585b1a5e995960921b60648201526084015b60405180910390fd5b5f805460ff191660011790558015610433575f805461ff0019166101001790555b61043e858585610643565b6104478261073e565b801561048c575f805461ff0019169055604051600181527f7f26b83ff96e1f2b6a682f133852f6798a09c465da95921460cefb38474024989060200160405180910390a15b5050505050565b5f8181526066602052604090208054606091906104af90610e5c565b80601f01602080910402602001604051908101604052809291908181526020018280546104db90610e5c565b80156105265780601f106104fd57610100808354040283529160200191610526565b820191905f5260205f20905b81548152906001019060200180831161050957829003601f168201915b50505050509050919050565b5f8181526069602052604090208054606091906104af90610e5c565b6065546001600160a01b031633146105785760405162461bcd60e51b815260040161040990610e94565b6105b78383838080601f0160208091040260200160405190810160405280939291908181526020018383808284375f9201919091525061095e92505050565b505050565b5f61062884848080601f0160208091040260200160405190810160405280939291908181526020018383808284375f9201919091525050604080516001600160a01b03881660208201520191506106109050565b604051602081830303815290604052620f42406109aa565b949350505050565b610638610a4c565b6106415f610aa6565b565b5f54610100900460ff166106695760405162461bcd60e51b815260040161040990610eea565b61067283610aa6565b606580546001600160401b03909216600160a01b026001600160e01b03199092166001600160a01b039093169290921717905550565b6065546001600160a01b031633146106d25760405162461bcd60e51b815260040161040990610e94565b6065546001600160401b03600160a01b90910481169082161115610716576065805467ffffffffffffffff60a01b1916600160a01b6001600160401b038416021790555b50565b6065545f9061073990600160a01b90046001600160401b03166001610f35565b905090565b5f54610100900460ff166107645760405162461bcd60e51b815260040161040990610eea565b606780546001600160a01b0319166001600160a01b0392909216919091179055565b60696020525f90815260409020805461079e90610e5c565b80601f01602080910402602001604051908101604052809291908181526020018280546107ca90610e5c565b80156108155780601f106107ec57610100808354040283529160200191610815565b820191905f5260205f20905b8154815290600101906020018083116107f857829003601f168201915b505050505081565b6065546001600160a01b031633146108475760405162461bcd60e51b815260040161040990610e94565b5f8381526066602052604090208061085f8482610fa4565b50600101555050565b610870610a4c565b6001600160a01b0381166108d55760405162461bcd60e51b815260206004820152602660248201527f4f776e61626c653a206e6577206f776e657220697320746865207a65726f206160448201526564647265737360d01b6064820152608401610409565b61071681610aa6565b604051600190835f526020830151604052604083510361091957604083015160ff81901c601b016020526001600160ff1b031660605261093d565b60418351036109395760608301515f1a602052604083015160605261093d565b5f91505b6020604060805f855afa505f6060523d606018519150806040525092915050565b5f5f82806020019051810190610974919061105e565b6001600160a01b0382165f90815260686020908152604080832084905588835260699091529020919350915061048c8482610fa4565b6065545f9081906001600160a01b031663a8f63fb66109c7610719565b8787876040518563ffffffff1660e01b81526004016109e9949392919061108a565b6020604051808303815f875af1158015610a05573d5f5f3e3d5ffd5b505050506040513d601f19601f82011682018060405250810190610a2991906110d8565b5f818152606660205260409020909150610a438582610fa4565b50949350505050565b6033546001600160a01b031633146106415760405162461bcd60e51b815260206004820181905260248201527f4f776e61626c653a2063616c6c6572206973206e6f7420746865206f776e65726044820152606401610409565b603380546001600160a01b038381166001600160a01b0319831681179093556040519116919082907f8be0079c531659141344cd1fd0a4f28419497f9722a3daafe3b4186f6b6457e0905f90a35050565b634e487b7160e01b5f52604160045260245ffd5b5f82601f830112610b1a575f5ffd5b81356001600160401b03811115610b3357610b33610af7565b604051601f8201601f19908116603f011681016001600160401b0381118282101715610b6157610b61610af7565b604052818152838201602001851015610b78575f5ffd5b816020850160208301375f918101602001919091529392505050565b5f5f60408385031215610ba5575f5ffd5b8235915060208301356001600160401b03811115610bc1575f5ffd5b610bcd85828601610b0b565b9150509250929050565b6001600160a01b0381168114610716575f5ffd5b5f60208284031215610bfb575f5ffd5b8135610c0681610bd7565b9392505050565b80356001600160401b0381168114610c23575f5ffd5b919050565b5f5f5f5f60808587031215610c3b575f5ffd5b8435610c4681610bd7565b93506020850135610c5681610bd7565b9250610c6460408601610c0d565b91506060850135610c7481610bd7565b939692955090935050565b5f60208284031215610c8f575f5ffd5b5035919050565b5f81518084528060208401602086015e5f602082860101526020601f19601f83011685010191505092915050565b602081525f610c066020830184610c96565b5f5f83601f840112610ce6575f5ffd5b5081356001600160401b03811115610cfc575f5ffd5b602083019150836020828501011115610d13575f5ffd5b9250929050565b5f5f5f60408486031215610d2c575f5ffd5b8335925060208401356001600160401b03811115610d48575f5ffd5b610d5486828701610cd6565b9497909650939450505050565b5f5f5f60408486031215610d73575f5ffd5b83356001600160401b03811115610d88575f5ffd5b610d9486828701610cd6565b9094509250506020840135610da881610bd7565b809150509250925092565b5f5f5f60608486031215610dc5575f5ffd5b8335610dd081610bd7565b92506020840135610de081610bd7565b9150610dee60408501610c0d565b90509250925092565b5f60208284031215610e07575f5ffd5b610c0682610c0d565b5f5f5f60608486031215610e22575f5ffd5b8335925060208401356001600160401b03811115610e3e575f5ffd5b610e4a86828701610b0b565b93969395505050506040919091013590565b600181811c90821680610e7057607f821691505b602082108103610e8e57634e487b7160e01b5f52602260045260245ffd5b50919050565b60208082526036908201527f436f6e73756d65722e6f6e6c794a6f624d616e616765723a2063616c6c65722060408201527534b9903737ba103a3432903537b11036b0b730b3b2b960511b606082015260800190565b6020808252602b908201527f496e697469616c697a61626c653a20636f6e7472616374206973206e6f74206960408201526a6e697469616c697a696e6760a81b606082015260800190565b6001600160401b03818116838216019081111561036d57634e487b7160e01b5f52601160045260245ffd5b601f8211156105b757805f5260205f20601f840160051c81016020851015610f855750805b601f840160051c820191505b8181101561048c575f8155600101610f91565b81516001600160401b03811115610fbd57610fbd610af7565b610fd181610fcb8454610e5c565b84610f60565b6020601f821160018114611003575f8315610fec5750848201515b5f19600385901b1c1916600184901b17845561048c565b5f84815260208120601f198516915b828110156110325787850151825560209485019460019092019101611012565b508482101561104f57868401515f19600387901b60f8161c191681555b50505050600190811b01905550565b5f5f6040838503121561106f575f5ffd5b825161107a81610bd7565b6020939093015192949293505050565b6001600160401b0385168152608060208201525f6110ab6080830186610c96565b82810360408401526110bd8186610c96565b9150506001600160401b038316606083015295945050505050565b5f602082840312156110e8575f5ffd5b505191905056fea26469706673582212206368ac2447b65d069fcdcc535896d0cc7214a51b0fa37ce8070d44c04bcfa7e164736f6c634300081c0033","linkReferences":{}},"methodIdentifiers":{"addressToBalance(address)":"237c980a","getBalance(address)":"f8b2cb4f","getJobResult(bytes32)":"54c04a4f","getNextNonce()":"bd7084b2","getOffchainInputHashForJob(bytes32)":"c072fcad","getOffchainSigner()":"a4af999d","getOnchainInputForJob(bytes32)":"535fb15e","initialize(address)":"c4d66de8","initialize(address,address,uint64)":"7879ec31","initialize(address,address,uint64,address)":"4e04275f","isValidSignature(bytes32,bytes)":"1626ba7e","jobIDToResult(bytes32)":"c74d9921","maxNonce()":"f0ce077c","owner()":"8da5cb5b","receiveResult(bytes32,bytes)":"5dd80855","renounceOwnership()":"715018a6","requestBalance(bytes,address)":"712879da","setInputsForJob(bytes32,bytes,bytes32)":"f0bb3feb","transferOwnership(address)":"f2fde38b","updateLatestNonce(uint64)":"b75880a4"},"id":57}