{"abi":[{"type":"constructor","inputs":[{"name":"jobManager","type":"address","internalType":"address"},{"name":"_offchainSigner","type":"address","internalType":"address"},{"name":"initialMaxNonce","type":"uint64","internalType":"uint64"}],"stateMutability":"nonpayable"},{"type":"function","name":"addressToBalance","inputs":[{"name":"","type":"address","internalType":"address"}],"outputs":[{"name":"","type":"uint256","internalType":"uint256"}],"stateMutability":"view"},{"type":"function","name":"getBalance","inputs":[{"name":"addr","type":"address","internalType":"address"}],"outputs":[{"name":"","type":"uint256","internalType":"uint256"}],"stateMutability":"view"},{"type":"function","name":"getJobResult","inputs":[{"name":"jobID","type":"bytes32","internalType":"bytes32"}],"outputs":[{"name":"","type":"bytes","internalType":"bytes"}],"stateMutability":"view"},{"type":"function","name":"getNextNonce","inputs":[],"outputs":[{"name":"","type":"uint64","internalType":"uint64"}],"stateMutability":"view"},{"type":"function","name":"getOffchainInputHashForJob","inputs":[{"name":"jobID","type":"bytes32","internalType":"bytes32"}],"outputs":[{"name":"","type":"bytes32","internalType":"bytes32"}],"stateMutability":"view"},{"type":"function","name":"getOffchainSigner","inputs":[],"outputs":[{"name":"","type":"address","internalType":"address"}],"stateMutability":"view"},{"type":"function","name":"getOnchainInputForJob","inputs":[{"name":"jobID","type":"bytes32","internalType":"bytes32"}],"outputs":[{"name":"","type":"bytes","internalType":"bytes"}],"stateMutability":"view"},{"type":"function","name":"isValidSignature","inputs":[{"name":"messageHash","type":"bytes32","internalType":"bytes32"},{"name":"signature","type":"bytes","internalType":"bytes"}],"outputs":[{"name":"","type":"bytes4","internalType":"bytes4"}],"stateMutability":"view"},{"type":"function","name":"jobIDToResult","inputs":[{"name":"","type":"bytes32","internalType":"bytes32"}],"outputs":[{"name":"","type":"bytes","internalType":"bytes"}],"stateMutability":"view"},{"type":"function","name":"maxNonce","inputs":[],"outputs":[{"name":"","type":"uint64","internalType":"uint64"}],"stateMutability":"view"},{"type":"function","name":"receiveResult","inputs":[{"name":"jobID","type":"bytes32","internalType":"bytes32"},{"name":"result","type":"bytes","internalType":"bytes"}],"outputs":[],"stateMutability":"nonpayable"},{"type":"function","name":"requestBalance","inputs":[{"name":"programID","type":"bytes","internalType":"bytes"},{"name":"addr","type":"address","internalType":"address"}],"outputs":[{"name":"","type":"bytes32","internalType":"bytes32"}],"stateMutability":"nonpayable"},{"type":"function","name":"setInputsForJob","inputs":[{"name":"jobID","type":"bytes32","internalType":"bytes32"},{"name":"onchainInput","type":"bytes","internalType":"bytes"},{"name":"offchainInputHash","type":"bytes32","internalType":"bytes32"}],"outputs":[],"stateMutability":"nonpayable"},{"type":"function","name":"updateLatestNonce","inputs":[{"name":"nonce","type":"uint64","internalType":"uint64"}],"outputs":[],"stateMutability":"nonpayable"}],"bytecode":{"object":"0x6080604052348015600e575f5ffd5b50604051610d70380380610d70833981016040819052602b916093565b5f80546001600160401b0392909216600160a01b026001600160e01b03199092166001600160a01b039485161791909117905560028054919092166001600160a01b031990911617905560dd565b80516001600160a01b0381168114608e575f5ffd5b919050565b5f5f5f6060848603121560a4575f5ffd5b60ab846079565b925060b7602085016079565b60408501519092506001600160401b038116811460d2575f5ffd5b809150509250925092565b610c86806100ea5f395ff3fe608060405234801561000f575f5ffd5b50600436106100e5575f3560e01c8063b75880a411610088578063c74d992111610063578063c74d992114610213578063f0bb3feb14610226578063f0ce077c14610239578063f8b2cb4f14610252575f5ffd5b8063b75880a4146101bd578063bd7084b2146101d0578063c072fcad146101f0575f5ffd5b806354c04a4f116100c357806354c04a4f146101675780635dd808551461017a578063712879da1461018f578063a4af999d146101a2575f5ffd5b80631626ba7e146100e9578063237c980a1461011a578063535fb15e14610147575b5f5ffd5b6100fc6100f73660046107e9565b61027a565b6040516001600160e01b031990911681526020015b60405180910390f35b610139610128366004610840565b60036020525f908152604090205481565b604051908152602001610111565b61015a610155366004610862565b6102c2565b60405161011191906108a7565b61015a610175366004610862565b610361565b61018d6101883660046108fd565b61037d565b005b61013961019d366004610944565b6103f3565b6002546040516001600160a01b039091168152602001610111565b61018d6101cb366004610996565b610467565b6101d86104d5565b6040516001600160401b039091168152602001610111565b6101396101fe366004610862565b5f908152600160208190526040909120015490565b61015a610221366004610862565b6104f8565b61018d6102343660046109bc565b61058f565b5f546101d890600160a01b90046001600160401b031681565b610139610260366004610840565b6001600160a01b03165f9081526003602052604090205490565b5f5f61028684846105d9565b6002549091506001600160a01b03908116908216036102af5750630b135d3f60e11b90506102bc565b506001600160e01b031990505b92915050565b5f8181526001602052604090208054606091906102de90610a08565b80601f016020809104026020016040519081016040528092919081815260200182805461030a90610a08565b80156103555780601f1061032c57610100808354040283529160200191610355565b820191905f5260205f20905b81548152906001019060200180831161033857829003601f168201915b50505050509050919050565b5f8181526004602052604090208054606091906102de90610a08565b5f546001600160a01b031633146103af5760405162461bcd60e51b81526004016103a690610a40565b60405180910390fd5b6103ee8383838080601f0160208091040260200160405190810160405280939291908181526020018383808284375f9201919091525061065992505050565b505050565b5f61045f84848080601f0160208091040260200160405190810160405280939291908181526020018383808284375f9201919091525050604080516001600160a01b03881660208201520191506104479050565b604051602081830303815290604052620f42406106ac565b949350505050565b5f546001600160a01b031633146104905760405162461bcd60e51b81526004016103a690610a40565b5f546001600160401b03600160a01b909104811690821611156104d2575f805467ffffffffffffffff60a01b1916600160a01b6001600160401b038416021790555b50565b5f80546104f390600160a01b90046001600160401b03166001610a96565b905090565b60046020525f90815260409020805461051090610a08565b80601f016020809104026020016040519081016040528092919081815260200182805461053c90610a08565b80156105875780601f1061055e57610100808354040283529160200191610587565b820191905f5260205f20905b81548152906001019060200180831161056a57829003601f168201915b505050505081565b5f546001600160a01b031633146105b85760405162461bcd60e51b81526004016103a690610a40565b5f838152600160205260409020806105d08482610b05565b50600101555050565b604051600190835f526020830151604052604083510361061457604083015160ff81901c601b016020526001600160ff1b0316606052610638565b60418351036106345760608301515f1a6020526040830151606052610638565b5f91505b6020604060805f855afa505f6060523d606018519150806040525092915050565b5f5f8280602001905181019061066f9190610bbf565b6001600160a01b0382165f9081526003602090815260408083208490558883526004909152902091935091506106a58482610b05565b5050505050565b5f805481906001600160a01b031663a8f63fb66106c76104d5565b8787876040518563ffffffff1660e01b81526004016106e99493929190610beb565b6020604051808303815f875af1158015610705573d5f5f3e3d5ffd5b505050506040513d601f19601f820116820180604052508101906107299190610c39565b5f8181526001602052604090209091506107438582610b05565b50949350505050565b634e487b7160e01b5f52604160045260245ffd5b5f82601f83011261076f575f5ffd5b81356001600160401b038111156107885761078861074c565b604051601f8201601f19908116603f011681016001600160401b03811182821017156107b6576107b661074c565b6040528181528382016020018510156107cd575f5ffd5b816020850160208301375f918101602001919091529392505050565b5f5f604083850312156107fa575f5ffd5b8235915060208301356001600160401b03811115610816575f5ffd5b61082285828601610760565b9150509250929050565b6001600160a01b03811681146104d2575f5ffd5b5f60208284031215610850575f5ffd5b813561085b8161082c565b9392505050565b5f60208284031215610872575f5ffd5b5035919050565b5f81518084528060208401602086015e5f602082860101526020601f19601f83011685010191505092915050565b602081525f61085b6020830184610879565b5f5f83601f8401126108c9575f5ffd5b5081356001600160401b038111156108df575f5ffd5b6020830191508360208285010111156108f6575f5ffd5b9250929050565b5f5f5f6040848603121561090f575f5ffd5b8335925060208401356001600160401b0381111561092b575f5ffd5b610937868287016108b9565b9497909650939450505050565b5f5f5f60408486031215610956575f5ffd5b83356001600160401b0381111561096b575f5ffd5b610977868287016108b9565b909450925050602084013561098b8161082c565b809150509250925092565b5f602082840312156109a6575f5ffd5b81356001600160401b038116811461085b575f5ffd5b5f5f5f606084860312156109ce575f5ffd5b8335925060208401356001600160401b038111156109ea575f5ffd5b6109f686828701610760565b93969395505050506040919091013590565b600181811c90821680610a1c57607f821691505b602082108103610a3a57634e487b7160e01b5f52602260045260245ffd5b50919050565b60208082526036908201527f436f6e73756d65722e6f6e6c794a6f624d616e616765723a2063616c6c65722060408201527534b9903737ba103a3432903537b11036b0b730b3b2b960511b606082015260800190565b6001600160401b0381811683821601908111156102bc57634e487b7160e01b5f52601160045260245ffd5b601f8211156103ee57805f5260205f20601f840160051c81016020851015610ae65750805b601f840160051c820191505b818110156106a5575f8155600101610af2565b81516001600160401b03811115610b1e57610b1e61074c565b610b3281610b2c8454610a08565b84610ac1565b6020601f821160018114610b64575f8315610b4d5750848201515b5f19600385901b1c1916600184901b1784556106a5565b5f84815260208120601f198516915b82811015610b935787850151825560209485019460019092019101610b73565b5084821015610bb057868401515f19600387901b60f8161c191681555b50505050600190811b01905550565b5f5f60408385031215610bd0575f5ffd5b8251610bdb8161082c565b6020939093015192949293505050565b6001600160401b0385168152608060208201525f610c0c6080830186610879565b8281036040840152610c1e8186610879565b9150506001600160401b038316606083015295945050505050565b5f60208284031215610c49575f5ffd5b505191905056fea2646970667358221220266830711209fd71294c7f47d6687a9fd9ff748b839512ea36e28b4ccf3939c864736f6c634300081c0033","linkReferences":{}},"methodIdentifiers":{"addressToBalance(address)":"237c980a","getBalance(address)":"f8b2cb4f","getJobResult(bytes32)":"54c04a4f","getNextNonce()":"bd7084b2","getOffchainInputHashForJob(bytes32)":"c072fcad","getOffchainSigner()":"a4af999d","getOnchainInputForJob(bytes32)":"535fb15e","isValidSignature(bytes32,bytes)":"1626ba7e","jobIDToResult(bytes32)":"c74d9921","maxNonce()":"f0ce077c","receiveResult(bytes32,bytes)":"5dd80855","requestBalance(bytes,address)":"712879da","setInputsForJob(bytes32,bytes,bytes32)":"f0bb3feb","updateLatestNonce(uint64)":"b75880a4"},"id":75}