{"abi":[{"type":"constructor","inputs":[{"name":"_logic","type":"address","internalType":"address"},{"name":"admin_","type":"address","internalType":"address"},{"name":"_data","type":"bytes","internalType":"bytes"}],"stateMutability":"payable"},{"type":"fallback","stateMutability":"payable"},{"type":"receive","stateMutability":"payable"},{"type":"function","name":"admin","inputs":[],"outputs":[{"name":"admin_","type":"address","internalType":"address"}],"stateMutability":"nonpayable"},{"type":"function","name":"changeAdmin","inputs":[{"name":"newAdmin","type":"address","internalType":"address"}],"outputs":[],"stateMutability":"nonpayable"},{"type":"function","name":"implementation","inputs":[],"outputs":[{"name":"implementation_","type":"address","internalType":"address"}],"stateMutability":"nonpayable"},{"type":"function","name":"upgradeTo","inputs":[{"name":"newImplementation","type":"address","internalType":"address"}],"outputs":[],"stateMutability":"nonpayable"},{"type":"function","name":"upgradeToAndCall","inputs":[{"name":"newImplementation","type":"address","internalType":"address"},{"name":"data","type":"bytes","internalType":"bytes"}],"outputs":[],"stateMutability":"payable"},{"type":"event","name":"AdminChanged","inputs":[{"name":"previousAdmin","type":"address","indexed":false,"internalType":"address"},{"name":"newAdmin","type":"address","indexed":false,"internalType":"address"}],"anonymous":false},{"type":"event","name":"BeaconUpgraded","inputs":[{"name":"beacon","type":"address","indexed":true,"internalType":"address"}],"anonymous":false},{"type":"event","name":"Upgraded","inputs":[{"name":"implementation","type":"address","indexed":true,"internalType":"address"}],"anonymous":false}],"bytecode":{"object":"0x6080604052604051610cf2380380610cf2833981016040819052610022916103b7565b828161002f82825f610043565b5061003b90508261006e565b5050506104d3565b61004c836100db565b5f825111806100585750805b1561006957610067838361011a565b505b505050565b7f7e644d79422f17c01e4894b5f4f588d331ebfa28653d42ae832dc59e38c9798f6100ad5f516020610cab5f395f51905f52546001600160a01b031690565b604080516001600160a01b03928316815291841660208301520160405180910390a16100d881610146565b50565b6100e4816101e1565b6040516001600160a01b038216907fbc7cd75a20ee27fd9adebab32041f755214dbc6bffa90cc0225b39da2e5c2d3b905f90a250565b606061013f8383604051806060016040528060278152602001610ccb60279139610275565b9392505050565b6001600160a01b0381166101b05760405162461bcd60e51b815260206004820152602660248201527f455243313936373a206e65772061646d696e20697320746865207a65726f206160448201526564647265737360d01b60648201526084015b60405180910390fd5b805f516020610cab5f395f51905f525b80546001600160a01b0319166001600160a01b039290921691909117905550565b6001600160a01b0381163b61024e5760405162461bcd60e51b815260206004820152602d60248201527f455243313936373a206e657720696d706c656d656e746174696f6e206973206e60448201526c1bdd08184818dbdb9d1c9858dd609a1b60648201526084016101a7565b807f360894a13ba1a3210667c828492db98dca3e2076cc3735a920a3ca505d382bbc6101c0565b60606001600160a01b0384163b6102dd5760405162461bcd60e51b815260206004820152602660248201527f416464726573733a2064656c65676174652063616c6c20746f206e6f6e2d636f6044820152651b9d1c9858dd60d21b60648201526084016101a7565b5f5f856001600160a01b0316856040516102f79190610488565b5f60405180830381855af49150503d805f811461032f576040519150601f19603f3d011682016040523d82523d5f602084013e610334565b606091505b50909250905061034582828661034f565b9695505050505050565b6060831561035e57508161013f565b82511561036e5782518084602001fd5b8160405162461bcd60e51b81526004016101a7919061049e565b80516001600160a01b038116811461039e575f5ffd5b919050565b634e487b7160e01b5f52604160045260245ffd5b5f5f5f606084860312156103c9575f5ffd5b6103d284610388565b92506103e060208501610388565b60408501519092506001600160401b038111156103fb575f5ffd5b8401601f8101861361040b575f5ffd5b80516001600160401b03811115610424576104246103a3565b604051601f8201601f19908116603f011681016001600160401b0381118282101715610452576104526103a3565b604052818152828201602001881015610469575f5ffd5b8160208401602083015e5f602083830101528093505050509250925092565b5f82518060208501845e5f920191825250919050565b602081525f82518060208401528060208501604085015e5f604082850101526040601f19601f83011684010191505092915050565b6107cb806104e05f395ff3fe60806040526004361061004d575f3560e01c80633659cfe6146100645780634f1ef286146100835780635c60da1b146100965780638f283970146100c6578063f851a440146100e55761005c565b3661005c5761005a6100f9565b005b61005a6100f9565b34801561006f575f5ffd5b5061005a61007e36600461068c565b610113565b61005a6100913660046106a5565b61014e565b3480156100a1575f5ffd5b506100aa6101b4565b6040516001600160a01b03909116815260200160405180910390f35b3480156100d1575f5ffd5b5061005a6100e036600461068c565b6101e4565b3480156100f0575f5ffd5b506100aa610204565b610101610224565b61011161010c6102b9565b6102c2565b565b61011b6102e0565b6001600160a01b03163303610146576101438160405180602001604052805f8152505f610312565b50565b6101436100f9565b6101566102e0565b6001600160a01b031633036101ac576101a78383838080601f0160208091040260200160405190810160405280939291908181526020018383808284375f9201919091525060019250610312915050565b505050565b6101a76100f9565b5f6101bd6102e0565b6001600160a01b031633036101d9576101d46102b9565b905090565b6101e16100f9565b90565b6101ec6102e0565b6001600160a01b03163303610146576101438161033c565b5f61020d6102e0565b6001600160a01b031633036101d9576101d46102e0565b61022c6102e0565b6001600160a01b031633036101115760405162461bcd60e51b815260206004820152604260248201527f5472616e73706172656e745570677261646561626c6550726f78793a2061646d60448201527f696e2063616e6e6f742066616c6c6261636b20746f2070726f78792074617267606482015261195d60f21b608482015260a4015b60405180910390fd5b5f6101d4610390565b365f5f375f5f365f845af43d5f5f3e8080156102dc573d5ff35b3d5ffd5b5f7fb53127684a568b3173ae13b9f8a6016e243e63b6e8ee1178d6a717850b5d61035b546001600160a01b0316919050565b61031b836103b7565b5f825111806103275750805b156101a75761033683836103f6565b50505050565b7f7e644d79422f17c01e4894b5f4f588d331ebfa28653d42ae832dc59e38c9798f6103656102e0565b604080516001600160a01b03928316815291841660208301520160405180910390a161014381610422565b5f7f360894a13ba1a3210667c828492db98dca3e2076cc3735a920a3ca505d382bbc610303565b6103c0816104cb565b6040516001600160a01b038216907fbc7cd75a20ee27fd9adebab32041f755214dbc6bffa90cc0225b39da2e5c2d3b905f90a250565b606061041b838360405180606001604052806027815260200161076f6027913961055f565b9392505050565b6001600160a01b0381166104875760405162461bcd60e51b815260206004820152602660248201527f455243313936373a206e65772061646d696e20697320746865207a65726f206160448201526564647265737360d01b60648201526084016102b0565b807fb53127684a568b3173ae13b9f8a6016e243e63b6e8ee1178d6a717850b5d61035b80546001600160a01b0319166001600160a01b039290921691909117905550565b6001600160a01b0381163b6105385760405162461bcd60e51b815260206004820152602d60248201527f455243313936373a206e657720696d706c656d656e746174696f6e206973206e60448201526c1bdd08184818dbdb9d1c9858dd609a1b60648201526084016102b0565b807f360894a13ba1a3210667c828492db98dca3e2076cc3735a920a3ca505d382bbc6104aa565b60606001600160a01b0384163b6105c75760405162461bcd60e51b815260206004820152602660248201527f416464726573733a2064656c65676174652063616c6c20746f206e6f6e2d636f6044820152651b9d1c9858dd60d21b60648201526084016102b0565b5f5f856001600160a01b0316856040516105e19190610723565b5f60405180830381855af49150503d805f8114610619576040519150601f19603f3d011682016040523d82523d5f602084013e61061e565b606091505b509150915061062e828286610638565b9695505050505050565b6060831561064757508161041b565b8251156106575782518084602001fd5b8160405162461bcd60e51b81526004016102b09190610739565b80356001600160a01b0381168114610687575f5ffd5b919050565b5f6020828403121561069c575f5ffd5b61041b82610671565b5f5f5f604084860312156106b7575f5ffd5b6106c084610671565b9250602084013567ffffffffffffffff8111156106db575f5ffd5b8401601f810186136106eb575f5ffd5b803567ffffffffffffffff811115610701575f5ffd5b866020828401011115610712575f5ffd5b939660209190910195509293505050565b5f82518060208501845e5f920191825250919050565b602081525f82518060208401528060208501604085015e5f604082850101526040601f19601f8301168401019150509291505056fe416464726573733a206c6f772d6c6576656c2064656c65676174652063616c6c206661696c6564a2646970667358221220864bf4c92419f19e7279935c6eb1c834098cdf2cca2012d8facbfb6c5d2fc7e964736f6c634300081c0033b53127684a568b3173ae13b9f8a6016e243e63b6e8ee1178d6a717850b5d6103416464726573733a206c6f772d6c6576656c2064656c65676174652063616c6c206661696c6564","linkReferences":{}},"methodIdentifiers":{"admin()":"f851a440","changeAdmin(address)":"8f283970","implementation()":"5c60da1b","upgradeTo(address)":"3659cfe6","upgradeToAndCall(address,bytes)":"4f1ef286"},"id":35}